{
  "_format": "hh-sol-artifact-1",
  "contractName": "Main",
  "sourceName": "contracts/main.sol",
  "abi": [
    {
      "inputs": [],
      "stateMutability": "nonpayable",
      "type": "constructor"
    },
    {
      "inputs": [],
      "name": "getTokenHolder",
      "outputs": [
        {
          "components": [
            {
              "internalType": "address",
              "name": "holderAddress",
              "type": "address"
            },
            {
              "internalType": "string",
              "name": "tokenName",
              "type": "string"
            },
            {
              "internalType": "string",
              "name": "tokenSymbol",
              "type": "string"
            },
            {
              "internalType": "uint256",
              "name": "number",
              "type": "uint256"
            }
          ],
          "internalType": "struct Main.TokenHolder",
          "name": "",
          "type": "tuple"
        }
      ],
      "stateMutability": "view",
      "type": "function"
    },
    {
      "inputs": [
        {
          "internalType": "uint256",
          "name": "number",
          "type": "uint256"
        }
      ],
      "name": "mintTokens",
      "outputs": [],
      "stateMutability": "nonpayable",
      "type": "function"
    },
    {
      "inputs": [],
      "name": "token",
      "outputs": [
        {
          "internalType": "contract Token",
          "name": "",
          "type": "address"
        }
      ],
      "stateMutability": "view",
      "type": "function"
    },
    {
      "inputs": [],
      "name": "tokenHolder",
      "outputs": [
        {
          "internalType": "address",
          "name": "holderAddress",
          "type": "address"
        },
        {
          "internalType": "string",
          "name": "tokenName",
          "type": "string"
        },
        {
          "internalType": "string",
          "name": "tokenSymbol",
          "type": "string"
        },
        {
          "internalType": "uint256",
          "name": "number",
          "type": "uint256"
        }
      ],
      "stateMutability": "view",
      "type": "function"
    }
  ],
  "bytecode": "0x60806040523480156200001157600080fd5b50600560003373ffffffffffffffffffffffffffffffffffffffff1673ffffffffffffffffffffffffffffffffffffffff16815260200190815260200160002060009054906101000a900460ff1615620000a2576040517f08c379a0000000000000000000000000000000000000000000000000000000008152600401620000999062000343565b60405180910390fd5b60006040518060400160405280600781526020017f4d79546f6b656e00000000000000000000000000000000000000000000000000815250905060006040518060400160405280600381526020017f4d544b0000000000000000000000000000000000000000000000000000000000815250905081816040516200012690620002ae565b62000133929190620003ee565b604051809103906000f08015801562000150573d6000803e3d6000fd5b506000806101000a81548173ffffffffffffffffffffffffffffffffffffffff021916908373ffffffffffffffffffffffffffffffffffffffff1602179055506001600560003373ffffffffffffffffffffffffffffffffffffffff1673ffffffffffffffffffffffffffffffffffffffff16815260200190815260200160002060006101000a81548160ff02191690831515021790555060405180608001604052803373ffffffffffffffffffffffffffffffffffffffff1681526020018381526020018281526020016000815250600160008201518160000160006101000a81548173ffffffffffffffffffffffffffffffffffffffff021916908373ffffffffffffffffffffffffffffffffffffffff160217905550602082015181600101908162000280919062000698565b50604082015181600201908162000298919062000698565b506060820151816003015590505050506200077f565b612099806200111e83390190565b600082825260208201905092915050565b7f596f752063616e206f6e6c79206465706c6f792074686520636f6e747261637460008201527f206f6e63652e0000000000000000000000000000000000000000000000000000602082015250565b60006200032b602683620002bc565b91506200033882620002cd565b604082019050919050565b600060208201905081810360008301526200035e816200031c565b9050919050565b600081519050919050565b60005b838110156200039057808201518184015260208101905062000373565b60008484015250505050565b6000601f19601f8301169050919050565b6000620003ba8262000365565b620003c68185620002bc565b9350620003d881856020860162000370565b620003e3816200039c565b840191505092915050565b600060408201905081810360008301526200040a8185620003ad565b90508181036020830152620004208184620003ad565b90509392505050565b7f4e487b7100000000000000000000000000000000000000000000000000000000600052604160045260246000fd5b7f4e487b7100000000000000000000000000000000000000000000000000000000600052602260045260246000fd5b60006002820490506001821680620004a057607f821691505b602082108103620004b657620004b562000458565b5b50919050565b60008190508160005260206000209050919050565b60006020601f8301049050919050565b600082821b905092915050565b600060088302620005207fffffffffffffffffffffffffffffffffffffffffffffffffffffffffffffffff82620004e1565b6200052c8683620004e1565b95508019841693508086168417925050509392505050565b6000819050919050565b6000819050919050565b600062000579620005736200056d8462000544565b6200054e565b62000544565b9050919050565b6000819050919050565b620005958362000558565b620005ad620005a48262000580565b848454620004ee565b825550505050565b600090565b620005c4620005b5565b620005d18184846200058a565b505050565b5b81811015620005f957620005ed600082620005ba565b600181019050620005d7565b5050565b601f82111562000648576200061281620004bc565b6200061d84620004d1565b810160208510156200062d578190505b620006456200063c85620004d1565b830182620005d6565b50505b505050565b600082821c905092915050565b60006200066d600019846008026200064d565b1980831691505092915050565b60006200068883836200065a565b9150826002028217905092915050565b620006a38262000365565b67ffffffffffffffff811115620006bf57620006be62000429565b5b620006cb825462000487565b620006d8828285620005fd565b600060209050601f831160018114620007105760008415620006fb578287015190505b6200070785826200067a565b86555062000777565b601f1984166200072086620004bc565b60005b828110156200074a5784890151825560018201915060208501945060208101905062000723565b868310156200076a578489015162000766601f8916826200065a565b8355505b6001600288020188555050505b505050505050565b61098f806200078f6000396000f3fe608060405234801561001057600080fd5b506004361061004c5760003560e01c8063420a83e71461005157806397304ced14610072578063ba8e35571461008e578063fc0c546a146100ac575b600080fd5b6100596100ca565b604051610069949392919061062d565b60405180910390f35b61008c600480360381019061008791906106b1565b610218565b005b610096610343565b6040516100a391906107b0565b60405180910390f35b6100b46104e1565b6040516100c19190610831565b60405180910390f35b60018060000160009054906101000a900473ffffffffffffffffffffffffffffffffffffffff16908060010180546101019061087b565b80601f016020809104026020016040519081016040528092919081815260200182805461012d9061087b565b801561017a5780601f1061014f5761010080835404028352916020019161017a565b820191906000526020600020905b81548152906001019060200180831161015d57829003601f168201915b50505050509080600201805461018f9061087b565b80601f01602080910402602001604051908101604052809291908181526020018280546101bb9061087b565b80156102085780601f106101dd57610100808354040283529160200191610208565b820191906000526020600020905b8154815290600101906020018083116101eb57829003601f168201915b5050505050908060030154905084565b600160000160009054906101000a900473ffffffffffffffffffffffffffffffffffffffff1673ffffffffffffffffffffffffffffffffffffffff163373ffffffffffffffffffffffffffffffffffffffff16146102ab576040517f08c379a00000000000000000000000000000000000000000000000000000000081526004016102a29061091e565b60405180910390fd5b60008054906101000a900473ffffffffffffffffffffffffffffffffffffffff1673ffffffffffffffffffffffffffffffffffffffff166397304ced826040518263ffffffff1660e01b8152600401610304919061093e565b600060405180830381600087803b15801561031e57600080fd5b505af1158015610332573d6000803e3d6000fd5b505050508060016003018190555050565b61034b610505565b60016040518060800160405290816000820160009054906101000a900473ffffffffffffffffffffffffffffffffffffffff1673ffffffffffffffffffffffffffffffffffffffff1673ffffffffffffffffffffffffffffffffffffffff1681526020016001820180546103be9061087b565b80601f01602080910402602001604051908101604052809291908181526020018280546103ea9061087b565b80156104375780601f1061040c57610100808354040283529160200191610437565b820191906000526020600020905b81548152906001019060200180831161041a57829003601f168201915b505050505081526020016002820180546104509061087b565b80601f016020809104026020016040519081016040528092919081815260200182805461047c9061087b565b80156104c95780601f1061049e576101008083540402835291602001916104c9565b820191906000526020600020905b8154815290600101906020018083116104ac57829003601f168201915b50505050508152602001600382015481525050905090565b60008054906101000a900473ffffffffffffffffffffffffffffffffffffffff1681565b6040518060800160405280600073ffffffffffffffffffffffffffffffffffffffff1681526020016060815260200160608152602001600081525090565b600073ffffffffffffffffffffffffffffffffffffffff82169050919050565b600061056e82610543565b9050919050565b61057e81610563565b82525050565b600081519050919050565b600082825260208201905092915050565b60005b838110156105be5780820151818401526020810190506105a3565b60008484015250505050565b6000601f19601f8301169050919050565b60006105e682610584565b6105f0818561058f565b93506106008185602086016105a0565b610609816105ca565b840191505092915050565b6000819050919050565b61062781610614565b82525050565b60006080820190506106426000830187610575565b818103602083015261065481866105db565b9050818103604083015261066881856105db565b9050610677606083018461061e565b95945050505050565b600080fd5b61068e81610614565b811461069957600080fd5b50565b6000813590506106ab81610685565b92915050565b6000602082840312156106c7576106c6610680565b5b60006106d58482850161069c565b91505092915050565b6106e781610563565b82525050565b600082825260208201905092915050565b600061070982610584565b61071381856106ed565b93506107238185602086016105a0565b61072c816105ca565b840191505092915050565b61074081610614565b82525050565b600060808301600083015161075e60008601826106de565b506020830151848203602086015261077682826106fe565b9150506040830151848203604086015261079082826106fe565b91505060608301516107a56060860182610737565b508091505092915050565b600060208201905081810360008301526107ca8184610746565b905092915050565b6000819050919050565b60006107f76107f26107ed84610543565b6107d2565b610543565b9050919050565b6000610809826107dc565b9050919050565b600061081b826107fe565b9050919050565b61082b81610810565b82525050565b60006020820190506108466000830184610822565b92915050565b7f4e487b7100000000000000000000000000000000000000000000000000000000600052602260045260246000fd5b6000600282049050600182168061089357607f821691505b6020821081036108a6576108a561084c565b5b50919050565b7f4f6e6c7920746865206465706c6f7965722063616e206d696e7420746f6b656e60008201527f732e000000000000000000000000000000000000000000000000000000000000602082015250565b600061090860228361058f565b9150610913826108ac565b604082019050919050565b60006020820190508181036000830152610937816108fb565b9050919050565b6000602082019050610953600083018461061e565b9291505056fea2646970667358221220179116cbf218e5beabe105a0b6c3376929ce9970df9ff3f1370784efaa13366b64736f6c6343000818003360806040523480156200001157600080fd5b5060405162002099380380620020998339818101604052810190620000379190620002e8565b818181600390816200004a9190620005b8565b5080600490816200005c9190620005b8565b5050506200007f620000736200008760201b60201c565b6200008f60201b60201c565b50506200069f565b600033905090565b6000600560009054906101000a900473ffffffffffffffffffffffffffffffffffffffff16905081600560006101000a81548173ffffffffffffffffffffffffffffffffffffffff021916908373ffffffffffffffffffffffffffffffffffffffff1602179055508173ffffffffffffffffffffffffffffffffffffffff168173ffffffffffffffffffffffffffffffffffffffff167f8be0079c531659141344cd1fd0a4f28419497f9722a3daafe3b4186f6b6457e060405160405180910390a35050565b6000604051905090565b600080fd5b600080fd5b600080fd5b600080fd5b6000601f19601f8301169050919050565b7f4e487b7100000000000000000000000000000000000000000000000000000000600052604160045260246000fd5b620001be8262000173565b810181811067ffffffffffffffff82111715620001e057620001df62000184565b5b80604052505050565b6000620001f562000155565b9050620002038282620001b3565b919050565b600067ffffffffffffffff82111562000226576200022562000184565b5b620002318262000173565b9050602081019050919050565b60005b838110156200025e57808201518184015260208101905062000241565b60008484015250505050565b6000620002816200027b8462000208565b620001e9565b905082815260208101848484011115620002a0576200029f6200016e565b5b620002ad8482856200023e565b509392505050565b600082601f830112620002cd57620002cc62000169565b5b8151620002df8482602086016200026a565b91505092915050565b600080604083850312156200030257620003016200015f565b5b600083015167ffffffffffffffff81111562000323576200032262000164565b5b6200033185828601620002b5565b925050602083015167ffffffffffffffff81111562000355576200035462000164565b5b6200036385828601620002b5565b9150509250929050565b600081519050919050565b7f4e487b7100000000000000000000000000000000000000000000000000000000600052602260045260246000fd5b60006002820490506001821680620003c057607f821691505b602082108103620003d657620003d562000378565b5b50919050565b60008190508160005260206000209050919050565b60006020601f8301049050919050565b600082821b905092915050565b600060088302620004407fffffffffffffffffffffffffffffffffffffffffffffffffffffffffffffffff8262000401565b6200044c868362000401565b95508019841693508086168417925050509392505050565b6000819050919050565b6000819050919050565b600062000499620004936200048d8462000464565b6200046e565b62000464565b9050919050565b6000819050919050565b620004b58362000478565b620004cd620004c482620004a0565b8484546200040e565b825550505050565b600090565b620004e4620004d5565b620004f1818484620004aa565b505050565b5b8181101562000519576200050d600082620004da565b600181019050620004f7565b5050565b601f82111562000568576200053281620003dc565b6200053d84620003f1565b810160208510156200054d578190505b620005656200055c85620003f1565b830182620004f6565b50505b505050565b600082821c905092915050565b60006200058d600019846008026200056d565b1980831691505092915050565b6000620005a883836200057a565b9150826002028217905092915050565b620005c3826200036d565b67ffffffffffffffff811115620005df57620005de62000184565b5b620005eb8254620003a7565b620005f88282856200051d565b600060209050601f8311600181146200063057600084156200061b578287015190505b6200062785826200059a565b86555062000697565b601f1984166200064086620003dc565b60005b828110156200066a5784890151825560018201915060208501945060208101905062000643565b868310156200068a578489015162000686601f8916826200057a565b8355505b6001600288020188555050505b505050505050565b6119ea80620006af6000396000f3fe608060405234801561001057600080fd5b50600436106100f55760003560e01c8063715018a611610097578063a457c2d711610066578063a457c2d714610276578063a9059cbb146102a6578063dd62ed3e146102d6578063f2fde38b14610306576100f5565b8063715018a6146102145780638da5cb5b1461021e57806395d89b411461023c57806397304ced1461025a576100f5565b806323b872dd116100d357806323b872dd14610166578063313ce5671461019657806339509351146101b457806370a08231146101e4576100f5565b806306fdde03146100fa578063095ea7b31461011857806318160ddd14610148575b600080fd5b610102610322565b60405161010f9190610f46565b60405180910390f35b610132600480360381019061012d9190611001565b6103b4565b60405161013f919061105c565b60405180910390f35b6101506103d7565b60405161015d9190611086565b60405180910390f35b610180600480360381019061017b91906110a1565b6103e1565b60405161018d919061105c565b60405180910390f35b61019e610410565b6040516101ab9190611110565b60405180910390f35b6101ce60048036038101906101c99190611001565b610419565b6040516101db919061105c565b60405180910390f35b6101fe60048036038101906101f9919061112b565b610450565b60405161020b9190611086565b60405180910390f35b61021c610498565b005b6102266104ac565b6040516102339190611167565b60405180910390f35b6102446104d6565b6040516102519190610f46565b60405180910390f35b610274600480360381019061026f9190611182565b610568565b005b610290600480360381019061028b9190611001565b61059b565b60405161029d919061105c565b60405180910390f35b6102c060048036038101906102bb9190611001565b610612565b6040516102cd919061105c565b60405180910390f35b6102f060048036038101906102eb91906111af565b610635565b6040516102fd9190611086565b60405180910390f35b610320600480360381019061031b919061112b565b6106bc565b005b6060600380546103319061121e565b80601f016020809104026020016040519081016040528092919081815260200182805461035d9061121e565b80156103aa5780601f1061037f576101008083540402835291602001916103aa565b820191906000526020600020905b81548152906001019060200180831161038d57829003601f168201915b5050505050905090565b6000806103bf61073f565b90506103cc818585610747565b600191505092915050565b6000600254905090565b6000806103ec61073f565b90506103f9858285610910565b61040485858561099c565b60019150509392505050565b60006012905090565b60008061042461073f565b90506104458185856104368589610635565b610440919061127e565b610747565b600191505092915050565b60008060008373ffffffffffffffffffffffffffffffffffffffff1673ffffffffffffffffffffffffffffffffffffffff168152602001908152602001600020549050919050565b6104a0610c12565b6104aa6000610c90565b565b6000600560009054906101000a900473ffffffffffffffffffffffffffffffffffffffff16905090565b6060600480546104e59061121e565b80601f01602080910402602001604051908101604052809291908181526020018280546105119061121e565b801561055e5780601f106105335761010080835404028352916020019161055e565b820191906000526020600020905b81548152906001019060200180831161054157829003601f168201915b5050505050905090565b610570610c12565b6105983361057c610410565b600a61058891906113e5565b836105939190611430565b610d56565b50565b6000806105a661073f565b905060006105b48286610635565b9050838110156105f9576040517f08c379a00000000000000000000000000000000000000000000000000000000081526004016105f0906114e4565b60405180910390fd5b6106068286868403610747565b60019250505092915050565b60008061061d61073f565b905061062a81858561099c565b600191505092915050565b6000600160008473ffffffffffffffffffffffffffffffffffffffff1673ffffffffffffffffffffffffffffffffffffffff16815260200190815260200160002060008373ffffffffffffffffffffffffffffffffffffffff1673ffffffffffffffffffffffffffffffffffffffff16815260200190815260200160002054905092915050565b6106c4610c12565b600073ffffffffffffffffffffffffffffffffffffffff168173ffffffffffffffffffffffffffffffffffffffff1603610733576040517f08c379a000000000000000000000000000000000000000000000000000000000815260040161072a90611576565b60405180910390fd5b61073c81610c90565b50565b600033905090565b600073ffffffffffffffffffffffffffffffffffffffff168373ffffffffffffffffffffffffffffffffffffffff16036107b6576040517f08c379a00000000000000000000000000000000000000000000000000000000081526004016107ad90611608565b60405180910390fd5b600073ffffffffffffffffffffffffffffffffffffffff168273ffffffffffffffffffffffffffffffffffffffff1603610825576040517f08c379a000000000000000000000000000000000000000000000000000000000815260040161081c9061169a565b60405180910390fd5b80600160008573ffffffffffffffffffffffffffffffffffffffff1673ffffffffffffffffffffffffffffffffffffffff16815260200190815260200160002060008473ffffffffffffffffffffffffffffffffffffffff1673ffffffffffffffffffffffffffffffffffffffff168152602001908152602001600020819055508173ffffffffffffffffffffffffffffffffffffffff168373ffffffffffffffffffffffffffffffffffffffff167f8c5be1e5ebec7d5bd14f71427d1e84f3dd0314c0f7b2291e5b200ac8c7c3b925836040516109039190611086565b60405180910390a3505050565b600061091c8484610635565b90507fffffffffffffffffffffffffffffffffffffffffffffffffffffffffffffffff81146109965781811015610988576040517f08c379a000000000000000000000000000000000000000000000000000000000815260040161097f90611706565b60405180910390fd5b6109958484848403610747565b5b50505050565b600073ffffffffffffffffffffffffffffffffffffffff168373ffffffffffffffffffffffffffffffffffffffff1603610a0b576040517f08c379a0000000000000000000000000000000000000000000000000000000008152600401610a0290611798565b60405180910390fd5b600073ffffffffffffffffffffffffffffffffffffffff168273ffffffffffffffffffffffffffffffffffffffff1603610a7a576040517f08c379a0000000000000000000000000000000000000000000000000000000008152600401610a719061182a565b60405180910390fd5b610a85838383610eac565b60008060008573ffffffffffffffffffffffffffffffffffffffff1673ffffffffffffffffffffffffffffffffffffffff16815260200190815260200160002054905081811015610b0b576040517f08c379a0000000000000000000000000000000000000000000000000000000008152600401610b02906118bc565b60405180910390fd5b8181036000808673ffffffffffffffffffffffffffffffffffffffff1673ffffffffffffffffffffffffffffffffffffffff16815260200190815260200160002081905550816000808573ffffffffffffffffffffffffffffffffffffffff1673ffffffffffffffffffffffffffffffffffffffff168152602001908152602001600020600082825401925050819055508273ffffffffffffffffffffffffffffffffffffffff168473ffffffffffffffffffffffffffffffffffffffff167fddf252ad1be2c89b69c2b068fc378daa952ba7f163c4a11628f55a4df523b3ef84604051610bf99190611086565b60405180910390a3610c0c848484610eb1565b50505050565b610c1a61073f565b73ffffffffffffffffffffffffffffffffffffffff16610c386104ac565b73ffffffffffffffffffffffffffffffffffffffff1614610c8e576040517f08c379a0000000000000000000000000000000000000000000000000000000008152600401610c8590611928565b60405180910390fd5b565b6000600560009054906101000a900473ffffffffffffffffffffffffffffffffffffffff16905081600560006101000a81548173ffffffffffffffffffffffffffffffffffffffff021916908373ffffffffffffffffffffffffffffffffffffffff1602179055508173ffffffffffffffffffffffffffffffffffffffff168173ffffffffffffffffffffffffffffffffffffffff167f8be0079c531659141344cd1fd0a4f28419497f9722a3daafe3b4186f6b6457e060405160405180910390a35050565b600073ffffffffffffffffffffffffffffffffffffffff168273ffffffffffffffffffffffffffffffffffffffff1603610dc5576040517f08c379a0000000000000000000000000000000000000000000000000000000008152600401610dbc90611994565b60405180910390fd5b610dd160008383610eac565b8060026000828254610de3919061127e565b92505081905550806000808473ffffffffffffffffffffffffffffffffffffffff1673ffffffffffffffffffffffffffffffffffffffff168152602001908152602001600020600082825401925050819055508173ffffffffffffffffffffffffffffffffffffffff16600073ffffffffffffffffffffffffffffffffffffffff167fddf252ad1be2c89b69c2b068fc378daa952ba7f163c4a11628f55a4df523b3ef83604051610e949190611086565b60405180910390a3610ea860008383610eb1565b5050565b505050565b505050565b600081519050919050565b600082825260208201905092915050565b60005b83811015610ef0578082015181840152602081019050610ed5565b60008484015250505050565b6000601f19601f8301169050919050565b6000610f1882610eb6565b610f228185610ec1565b9350610f32818560208601610ed2565b610f3b81610efc565b840191505092915050565b60006020820190508181036000830152610f608184610f0d565b905092915050565b600080fd5b600073ffffffffffffffffffffffffffffffffffffffff82169050919050565b6000610f9882610f6d565b9050919050565b610fa881610f8d565b8114610fb357600080fd5b50565b600081359050610fc581610f9f565b92915050565b6000819050919050565b610fde81610fcb565b8114610fe957600080fd5b50565b600081359050610ffb81610fd5565b92915050565b6000806040838503121561101857611017610f68565b5b600061102685828601610fb6565b925050602061103785828601610fec565b9150509250929050565b60008115159050919050565b61105681611041565b82525050565b6000602082019050611071600083018461104d565b92915050565b61108081610fcb565b82525050565b600060208201905061109b6000830184611077565b92915050565b6000806000606084860312156110ba576110b9610f68565b5b60006110c886828701610fb6565b93505060206110d986828701610fb6565b92505060406110ea86828701610fec565b9150509250925092565b600060ff82169050919050565b61110a816110f4565b82525050565b60006020820190506111256000830184611101565b92915050565b60006020828403121561114157611140610f68565b5b600061114f84828501610fb6565b91505092915050565b61116181610f8d565b82525050565b600060208201905061117c6000830184611158565b92915050565b60006020828403121561119857611197610f68565b5b60006111a684828501610fec565b91505092915050565b600080604083850312156111c6576111c5610f68565b5b60006111d485828601610fb6565b92505060206111e585828601610fb6565b9150509250929050565b7f4e487b7100000000000000000000000000000000000000000000000000000000600052602260045260246000fd5b6000600282049050600182168061123657607f821691505b602082108103611249576112486111ef565b5b50919050565b7f4e487b7100000000000000000000000000000000000000000000000000000000600052601160045260246000fd5b600061128982610fcb565b915061129483610fcb565b92508282019050808211156112ac576112ab61124f565b5b92915050565b60008160011c9050919050565b6000808291508390505b6001851115611309578086048111156112e5576112e461124f565b5b60018516156112f45780820291505b8081029050611302856112b2565b94506112c9565b94509492505050565b60008261132257600190506113de565b8161133057600090506113de565b816001811461134657600281146113505761137f565b60019150506113de565b60ff8411156113625761136161124f565b5b8360020a9150848211156113795761137861124f565b5b506113de565b5060208310610133831016604e8410600b84101617156113b45782820a9050838111156113af576113ae61124f565b5b6113de565b6113c184848460016112bf565b925090508184048111156113d8576113d761124f565b5b81810290505b9392505050565b60006113f082610fcb565b91506113fb836110f4565b92506114287fffffffffffffffffffffffffffffffffffffffffffffffffffffffffffffffff8484611312565b905092915050565b600061143b82610fcb565b915061144683610fcb565b925082820261145481610fcb565b9150828204841483151761146b5761146a61124f565b5b5092915050565b7f45524332303a2064656372656173656420616c6c6f77616e63652062656c6f7760008201527f207a65726f000000000000000000000000000000000000000000000000000000602082015250565b60006114ce602583610ec1565b91506114d982611472565b604082019050919050565b600060208201905081810360008301526114fd816114c1565b9050919050565b7f4f776e61626c653a206e6577206f776e657220697320746865207a65726f206160008201527f6464726573730000000000000000000000000000000000000000000000000000602082015250565b6000611560602683610ec1565b915061156b82611504565b604082019050919050565b6000602082019050818103600083015261158f81611553565b9050919050565b7f45524332303a20617070726f76652066726f6d20746865207a65726f2061646460008201527f7265737300000000000000000000000000000000000000000000000000000000602082015250565b60006115f2602483610ec1565b91506115fd82611596565b604082019050919050565b60006020820190508181036000830152611621816115e5565b9050919050565b7f45524332303a20617070726f766520746f20746865207a65726f20616464726560008201527f7373000000000000000000000000000000000000000000000000000000000000602082015250565b6000611684602283610ec1565b915061168f82611628565b604082019050919050565b600060208201905081810360008301526116b381611677565b9050919050565b7f45524332303a20696e73756666696369656e7420616c6c6f77616e6365000000600082015250565b60006116f0601d83610ec1565b91506116fb826116ba565b602082019050919050565b6000602082019050818103600083015261171f816116e3565b9050919050565b7f45524332303a207472616e736665722066726f6d20746865207a65726f20616460008201527f6472657373000000000000000000000000000000000000000000000000000000602082015250565b6000611782602583610ec1565b915061178d82611726565b604082019050919050565b600060208201905081810360008301526117b181611775565b9050919050565b7f45524332303a207472616e7366657220746f20746865207a65726f206164647260008201527f6573730000000000000000000000000000000000000000000000000000000000602082015250565b6000611814602383610ec1565b915061181f826117b8565b604082019050919050565b6000602082019050818103600083015261184381611807565b9050919050565b7f45524332303a207472616e7366657220616d6f756e742065786365656473206260008201527f616c616e63650000000000000000000000000000000000000000000000000000602082015250565b60006118a6602683610ec1565b91506118b18261184a565b604082019050919050565b600060208201905081810360008301526118d581611899565b9050919050565b7f4f776e61626c653a2063616c6c6572206973206e6f7420746865206f776e6572600082015250565b6000611912602083610ec1565b915061191d826118dc565b602082019050919050565b6000602082019050818103600083015261194181611905565b9050919050565b7f45524332303a206d696e7420746f20746865207a65726f206164647265737300600082015250565b600061197e601f83610ec1565b915061198982611948565b602082019050919050565b600060208201905081810360008301526119ad81611971565b905091905056fea26469706673582212205c76e923c9f56c23a886b93a7afa7009f09dca6e6468869df90d5cf379a1c58064736f6c63430008180033",
  "linkReferences": {},
  "deployedLinkReferences": {}
}