{
  "_format": "hh-sol-artifact-1",
  "contractName": "Main",
  "sourceName": "contracts/main.sol",
  "abi": [
    {
      "inputs": [],
      "stateMutability": "nonpayable",
      "type": "constructor"
    },
    {
      "inputs": [],
      "name": "Owner",
      "outputs": [
        {
          "internalType": "address payable",
          "name": "",
          "type": "address"
        }
      ],
      "stateMutability": "view",
      "type": "function"
    },
    {
      "inputs": [
        {
          "internalType": "string",
          "name": "symbol",
          "type": "string"
        }
      ],
      "name": "getTokenHolderDetails",
      "outputs": [
        {
          "internalType": "address",
          "name": "holderAddress",
          "type": "address"
        },
        {
          "internalType": "string",
          "name": "tokenName",
          "type": "string"
        },
        {
          "internalType": "string",
          "name": "tokenSymbol",
          "type": "string"
        },
        {
          "internalType": "uint256",
          "name": "number",
          "type": "uint256"
        },
        {
          "internalType": "uint256",
          "name": "amount",
          "type": "uint256"
        }
      ],
      "stateMutability": "view",
      "type": "function"
    },
    {
      "inputs": [],
      "name": "getTokenHolderDetailsWithAddress",
      "outputs": [
        {
          "internalType": "address",
          "name": "holderAddress",
          "type": "address"
        },
        {
          "internalType": "string",
          "name": "tokenName",
          "type": "string"
        },
        {
          "internalType": "string",
          "name": "tokenSymbol",
          "type": "string"
        },
        {
          "internalType": "uint256",
          "name": "number",
          "type": "uint256"
        },
        {
          "internalType": "uint256",
          "name": "amount",
          "type": "uint256"
        }
      ],
      "stateMutability": "view",
      "type": "function"
    },
    {
      "inputs": [
        {
          "internalType": "string",
          "name": "tokenName",
          "type": "string"
        },
        {
          "internalType": "string",
          "name": "tokenSymbol",
          "type": "string"
        },
        {
          "internalType": "uint256",
          "name": "number",
          "type": "uint256"
        }
      ],
      "name": "mintTokens",
      "outputs": [],
      "stateMutability": "payable",
      "type": "function"
    },
    {
      "inputs": [],
      "name": "showToken",
      "outputs": [
        {
          "internalType": "string[]",
          "name": "",
          "type": "string[]"
        }
      ],
      "stateMutability": "view",
      "type": "function"
    }
  ],
  "bytecode": "0x608060405234801561001057600080fd5b50336000806101000a81548173ffffffffffffffffffffffffffffffffffffffff021916908373ffffffffffffffffffffffffffffffffffffffff160217905550613265806100606000396000f3fe608060405260043610620000505760003560e01c8063b0d534961462000055578063b4a99a4e146200009d578063ccce571514620000cd578063d1d690851462000101578063f10797ab1462000131575b600080fd5b3480156200006257600080fd5b506200008160048036038101906200007b919062000c43565b62000151565b6040516200009495949392919062000d7d565b60405180910390f35b348015620000aa57600080fd5b50620000b5620002f0565b604051620000c4919062000e0d565b60405180910390f35b348015620000da57600080fd5b50620000e562000314565b604051620000f895949392919062000d7d565b60405180910390f35b3480156200010e57600080fd5b5062000119620004d0565b60405162000128919062000f4c565b60405180910390f35b6200014f600480360381019062000149919062000fa1565b620005b3565b005b600060608060008060006002876040516200016d91906200107d565b908152602001604051809103902090508060000160009054906101000a900473ffffffffffffffffffffffffffffffffffffffff16816001018260020183600301548460040154838054620001c290620010c5565b80601f0160208091040260200160405190810160405280929190818152602001828054620001f090620010c5565b8015620002415780601f10620002155761010080835404028352916020019162000241565b820191906000526020600020905b8154815290600101906020018083116200022357829003601f168201915b505050505093508280546200025690620010c5565b80601f01602080910402602001604051908101604052809291908181526020018280546200028490620010c5565b8015620002d55780601f10620002a957610100808354040283529160200191620002d5565b820191906000526020600020905b815481529060010190602001808311620002b757829003601f168201915b50505050509250955095509550955095505091939590929450565b60008054906101000a900473ffffffffffffffffffffffffffffffffffffffff1681565b60006060806000806000600560003373ffffffffffffffffffffffffffffffffffffffff1673ffffffffffffffffffffffffffffffffffffffff16815260200190815260200160002090508060000160009054906101000a900473ffffffffffffffffffffffffffffffffffffffff16816001018260020183600301548460040154838054620003a490620010c5565b80601f0160208091040260200160405190810160405280929190818152602001828054620003d290620010c5565b8015620004235780601f10620003f75761010080835404028352916020019162000423565b820191906000526020600020905b8154815290600101906020018083116200040557829003601f168201915b505050505093508280546200043890620010c5565b80601f01602080910402602001604051908101604052809291908181526020018280546200046690620010c5565b8015620004b75780601f106200048b57610100808354040283529160200191620004b7565b820191906000526020600020905b8154815290600101906020018083116200049957829003601f168201915b5050505050925095509550955095509550509091929394565b60606001805480602002602001604051908101604052809291908181526020016000905b82821015620005aa5783829060005260206000200180546200051690620010c5565b80601f01602080910402602001604051908101604052809291908181526020018280546200054490620010c5565b8015620005955780601f10620005695761010080835404028352916020019162000595565b820191906000526020600020905b8154815290600101906020018083116200057757829003601f168201915b505050505081526020019060010190620004f4565b50505050905090565b6000600283604051620005c791906200107d565b90815260200160405180910390209050600073ffffffffffffffffffffffffffffffffffffffff168160000160009054906101000a900473ffffffffffffffffffffffffffffffffffffffff1673ffffffffffffffffffffffffffffffffffffffff1614620006cb578060000160009054906101000a900473ffffffffffffffffffffffffffffffffffffffff1673ffffffffffffffffffffffffffffffffffffffff163373ffffffffffffffffffffffffffffffffffffffff1614620006c5576040517f08c379a0000000000000000000000000000000000000000000000000000000008152600401620006bc9062001170565b60405180910390fd5b62000993565b6040518060a001604052803373ffffffffffffffffffffffffffffffffffffffff16815260200185815260200184815260200183815260200160018152506002846040516200071b91906200107d565b908152602001604051809103902060008201518160000160006101000a81548173ffffffffffffffffffffffffffffffffffffffff021916908373ffffffffffffffffffffffffffffffffffffffff160217905550602082015181600101908162000787919062001364565b5060408201518160020190816200079f919062001364565b506060820151816003015560808201518160040155905050600283604051620007c991906200107d565b9081526020016040518091039020600560003373ffffffffffffffffffffffffffffffffffffffff1673ffffffffffffffffffffffffffffffffffffffff1681526020019081526020016000206000820160009054906101000a900473ffffffffffffffffffffffffffffffffffffffff168160000160006101000a81548173ffffffffffffffffffffffffffffffffffffffff021916908373ffffffffffffffffffffffffffffffffffffffff1602179055506001820181600101908162000893919062001463565b5060028201816002019081620008aa919062001463565b506003820154816003015560048201548160040155905050600183908060018154018082558091505060019003906000526020600020016000909190919091509081620008f8919062001364565b508383604051620009099062000abf565b6200091692919062001564565b604051809103906000f08015801562000933573d6000803e3d6000fd5b506003846040516200094691906200107d565b908152602001604051809103902060006101000a81548173ffffffffffffffffffffffffffffffffffffffff021916908373ffffffffffffffffffffffffffffffffffffffff1602179055505b6000600384604051620009a791906200107d565b908152602001604051809103902060009054906101000a900473ffffffffffffffffffffffffffffffffffffffff1690508073ffffffffffffffffffffffffffffffffffffffff166397304ced846040518263ffffffff1660e01b815260040162000a1391906200159f565b600060405180830381600087803b15801562000a2e57600080fd5b505af115801562000a43573d6000803e3d6000fd5b5050505082826003018190555060008054906101000a900473ffffffffffffffffffffffffffffffffffffffff1673ffffffffffffffffffffffffffffffffffffffff166108fc349081150290604051600060405180830381858888f1935050505015801562000ab7573d6000803e3d6000fd5b505050505050565b611c7380620015bd83390190565b6000604051905090565b600080fd5b600080fd5b600080fd5b600080fd5b6000601f19601f8301169050919050565b7f4e487b7100000000000000000000000000000000000000000000000000000000600052604160045260246000fd5b62000b368262000aeb565b810181811067ffffffffffffffff8211171562000b585762000b5762000afc565b5b80604052505050565b600062000b6d62000acd565b905062000b7b828262000b2b565b919050565b600067ffffffffffffffff82111562000b9e5762000b9d62000afc565b5b62000ba98262000aeb565b9050602081019050919050565b82818337600083830152505050565b600062000bdc62000bd68462000b80565b62000b61565b90508281526020810184848401111562000bfb5762000bfa62000ae6565b5b62000c0884828562000bb6565b509392505050565b600082601f83011262000c285762000c2762000ae1565b5b813562000c3a84826020860162000bc5565b91505092915050565b60006020828403121562000c5c5762000c5b62000ad7565b5b600082013567ffffffffffffffff81111562000c7d5762000c7c62000adc565b5b62000c8b8482850162000c10565b91505092915050565b600073ffffffffffffffffffffffffffffffffffffffff82169050919050565b600062000cc18262000c94565b9050919050565b62000cd38162000cb4565b82525050565b600081519050919050565b600082825260208201905092915050565b60005b8381101562000d1557808201518184015260208101905062000cf8565b60008484015250505050565b600062000d2e8262000cd9565b62000d3a818562000ce4565b935062000d4c81856020860162000cf5565b62000d578162000aeb565b840191505092915050565b6000819050919050565b62000d778162000d62565b82525050565b600060a08201905062000d94600083018862000cc8565b818103602083015262000da8818762000d21565b9050818103604083015262000dbe818662000d21565b905062000dcf606083018562000d6c565b62000dde608083018462000d6c565b9695505050505050565b600062000df58262000c94565b9050919050565b62000e078162000de8565b82525050565b600060208201905062000e24600083018462000dfc565b92915050565b600081519050919050565b600082825260208201905092915050565b6000819050602082019050919050565b600082825260208201905092915050565b600062000e748262000cd9565b62000e80818562000e56565b935062000e9281856020860162000cf5565b62000e9d8162000aeb565b840191505092915050565b600062000eb6838362000e67565b905092915050565b6000602082019050919050565b600062000ed88262000e2a565b62000ee4818562000e35565b93508360208202850162000ef88562000e46565b8060005b8581101562000f3a578484038952815162000f18858262000ea8565b945062000f258362000ebe565b925060208a0199505060018101905062000efc565b50829750879550505050505092915050565b6000602082019050818103600083015262000f68818462000ecb565b905092915050565b62000f7b8162000d62565b811462000f8757600080fd5b50565b60008135905062000f9b8162000f70565b92915050565b60008060006060848603121562000fbd5762000fbc62000ad7565b5b600084013567ffffffffffffffff81111562000fde5762000fdd62000adc565b5b62000fec8682870162000c10565b935050602084013567ffffffffffffffff81111562001010576200100f62000adc565b5b6200101e8682870162000c10565b9250506040620010318682870162000f8a565b9150509250925092565b600081905092915050565b6000620010538262000cd9565b6200105f81856200103b565b93506200107181856020860162000cf5565b80840191505092915050565b60006200108b828462001046565b915081905092915050565b7f4e487b7100000000000000000000000000000000000000000000000000000000600052602260045260246000fd5b60006002820490506001821680620010de57607f821691505b602082108103620010f457620010f362001096565b5b50919050565b7f4f6e6c792074686520746f6b656e20686f6c6465722063616e206d696e74207460008201527f6f6b656e732e0000000000000000000000000000000000000000000000000000602082015250565b60006200115860268362000ce4565b91506200116582620010fa565b604082019050919050565b600060208201905081810360008301526200118b8162001149565b9050919050565b60008190508160005260206000209050919050565b60006020601f8301049050919050565b600082821b905092915050565b600060088302620011f67fffffffffffffffffffffffffffffffffffffffffffffffffffffffffffffffff82620011b7565b620012028683620011b7565b95508019841693508086168417925050509392505050565b6000819050919050565b6000620012456200123f620012398462000d62565b6200121a565b62000d62565b9050919050565b6000819050919050565b620012618362001224565b6200127962001270826200124c565b848454620011c4565b825550505050565b600090565b6200129062001281565b6200129d81848462001256565b505050565b5b81811015620012c557620012b960008262001286565b600181019050620012a3565b5050565b601f8211156200131457620012de8162001192565b620012e984620011a7565b81016020851015620012f9578190505b620013116200130885620011a7565b830182620012a2565b50505b505050565b600082821c905092915050565b6000620013396000198460080262001319565b1980831691505092915050565b600062001354838362001326565b9150826002028217905092915050565b6200136f8262000cd9565b67ffffffffffffffff8111156200138b576200138a62000afc565b5b620013978254620010c5565b620013a4828285620012c9565b600060209050601f831160018114620013dc5760008415620013c7578287015190505b620013d3858262001346565b86555062001443565b601f198416620013ec8662001192565b60005b828110156200141657848901518255600182019150602085019450602081019050620013ef565b8683101562001436578489015162001432601f89168262001326565b8355505b6001600288020188555050505b505050505050565b6000815490506200145c81620010c5565b9050919050565b8181036200147357505062001562565b6200147e826200144b565b67ffffffffffffffff8111156200149a576200149962000afc565b5b620014a68254620010c5565b620014b3828285620012c9565b6000601f831160018114620014e75760008415620014d2578287015490505b620014de858262001346565b8655506200155b565b601f198416620014f78762001192565b9650620015048662001192565b60005b828110156200152e5784890154825560018201915060018501945060208101905062001507565b868310156200154e57848901546200154a601f89168262001326565b8355505b6001600288020188555050505b5050505050505b565b6000604082019050818103600083015262001580818562000d21565b9050818103602083015262001596818462000d21565b90509392505050565b6000602082019050620015b6600083018462000d6c565b9291505056fe60806040523480156200001157600080fd5b5060405162001c7338038062001c738339818101604052810190620000379190620001fa565b818181600390816200004a9190620004ca565b5080600490816200005c9190620004ca565b5050505050620005b1565b6000604051905090565b600080fd5b600080fd5b600080fd5b600080fd5b6000601f19601f8301169050919050565b7f4e487b7100000000000000000000000000000000000000000000000000000000600052604160045260246000fd5b620000d08262000085565b810181811067ffffffffffffffff82111715620000f257620000f162000096565b5b80604052505050565b60006200010762000067565b9050620001158282620000c5565b919050565b600067ffffffffffffffff82111562000138576200013762000096565b5b620001438262000085565b9050602081019050919050565b60005b838110156200017057808201518184015260208101905062000153565b60008484015250505050565b6000620001936200018d846200011a565b620000fb565b905082815260208101848484011115620001b257620001b162000080565b5b620001bf84828562000150565b509392505050565b600082601f830112620001df57620001de6200007b565b5b8151620001f18482602086016200017c565b91505092915050565b6000806040838503121562000214576200021362000071565b5b600083015167ffffffffffffffff81111562000235576200023462000076565b5b6200024385828601620001c7565b925050602083015167ffffffffffffffff81111562000267576200026662000076565b5b6200027585828601620001c7565b9150509250929050565b600081519050919050565b7f4e487b7100000000000000000000000000000000000000000000000000000000600052602260045260246000fd5b60006002820490506001821680620002d257607f821691505b602082108103620002e857620002e76200028a565b5b50919050565b60008190508160005260206000209050919050565b60006020601f8301049050919050565b600082821b905092915050565b600060088302620003527fffffffffffffffffffffffffffffffffffffffffffffffffffffffffffffffff8262000313565b6200035e868362000313565b95508019841693508086168417925050509392505050565b6000819050919050565b6000819050919050565b6000620003ab620003a56200039f8462000376565b62000380565b62000376565b9050919050565b6000819050919050565b620003c7836200038a565b620003df620003d682620003b2565b84845462000320565b825550505050565b600090565b620003f6620003e7565b62000403818484620003bc565b505050565b5b818110156200042b576200041f600082620003ec565b60018101905062000409565b5050565b601f8211156200047a576200044481620002ee565b6200044f8462000303565b810160208510156200045f578190505b620004776200046e8562000303565b83018262000408565b50505b505050565b600082821c905092915050565b60006200049f600019846008026200047f565b1980831691505092915050565b6000620004ba83836200048c565b9150826002028217905092915050565b620004d5826200027f565b67ffffffffffffffff811115620004f157620004f062000096565b5b620004fd8254620002b9565b6200050a8282856200042f565b600060209050601f8311600181146200054257600084156200052d578287015190505b620005398582620004ac565b865550620005a9565b601f1984166200055286620002ee565b60005b828110156200057c5784890151825560018201915060208501945060208101905062000555565b868310156200059c578489015162000598601f8916826200048c565b8355505b6001600288020188555050505b505050505050565b6116b280620005c16000396000f3fe6080604052600436106100a75760003560e01c806370a082311161006457806370a08231146101e457806395d89b411461022157806397304ced1461024c578063a457c2d714610268578063a9059cbb146102a5578063dd62ed3e146102e2576100a7565b806306fdde03146100ac578063095ea7b3146100d757806318160ddd1461011457806323b872dd1461013f578063313ce5671461017c57806339509351146101a7575b600080fd5b3480156100b857600080fd5b506100c161031f565b6040516100ce9190610d36565b60405180910390f35b3480156100e357600080fd5b506100fe60048036038101906100f99190610df1565b6103b1565b60405161010b9190610e4c565b60405180910390f35b34801561012057600080fd5b506101296103d4565b6040516101369190610e76565b60405180910390f35b34801561014b57600080fd5b5061016660048036038101906101619190610e91565b6103de565b6040516101739190610e4c565b60405180910390f35b34801561018857600080fd5b5061019161040d565b60405161019e9190610f00565b60405180910390f35b3480156101b357600080fd5b506101ce60048036038101906101c99190610df1565b610416565b6040516101db9190610e4c565b60405180910390f35b3480156101f057600080fd5b5061020b60048036038101906102069190610f1b565b61044d565b6040516102189190610e76565b60405180910390f35b34801561022d57600080fd5b50610236610495565b6040516102439190610d36565b60405180910390f35b61026660048036038101906102619190610f48565b610527565b005b34801561027457600080fd5b5061028f600480360381019061028a9190610df1565b610552565b60405161029c9190610e4c565b60405180910390f35b3480156102b157600080fd5b506102cc60048036038101906102c79190610df1565b6105c9565b6040516102d99190610e4c565b60405180910390f35b3480156102ee57600080fd5b5061030960048036038101906103049190610f75565b6105ec565b6040516103169190610e76565b60405180910390f35b60606003805461032e90610fe4565b80601f016020809104026020016040519081016040528092919081815260200182805461035a90610fe4565b80156103a75780601f1061037c576101008083540402835291602001916103a7565b820191906000526020600020905b81548152906001019060200180831161038a57829003601f168201915b5050505050905090565b6000806103bc610673565b90506103c981858561067b565b600191505092915050565b6000600254905090565b6000806103e9610673565b90506103f6858285610844565b6104018585856108d0565b60019150509392505050565b60006012905090565b600080610421610673565b905061044281858561043385896105ec565b61043d9190611044565b61067b565b600191505092915050565b60008060008373ffffffffffffffffffffffffffffffffffffffff1673ffffffffffffffffffffffffffffffffffffffff168152602001908152602001600020549050919050565b6060600480546104a490610fe4565b80601f01602080910402602001604051908101604052809291908181526020018280546104d090610fe4565b801561051d5780601f106104f25761010080835404028352916020019161051d565b820191906000526020600020905b81548152906001019060200180831161050057829003601f168201915b5050505050905090565b61054f3361053361040d565b600a61053f91906111ab565b8361054a91906111f6565b610b46565b50565b60008061055d610673565b9050600061056b82866105ec565b9050838110156105b0576040517f08c379a00000000000000000000000000000000000000000000000000000000081526004016105a7906112aa565b60405180910390fd5b6105bd828686840361067b565b60019250505092915050565b6000806105d4610673565b90506105e18185856108d0565b600191505092915050565b6000600160008473ffffffffffffffffffffffffffffffffffffffff1673ffffffffffffffffffffffffffffffffffffffff16815260200190815260200160002060008373ffffffffffffffffffffffffffffffffffffffff1673ffffffffffffffffffffffffffffffffffffffff16815260200190815260200160002054905092915050565b600033905090565b600073ffffffffffffffffffffffffffffffffffffffff168373ffffffffffffffffffffffffffffffffffffffff16036106ea576040517f08c379a00000000000000000000000000000000000000000000000000000000081526004016106e19061133c565b60405180910390fd5b600073ffffffffffffffffffffffffffffffffffffffff168273ffffffffffffffffffffffffffffffffffffffff1603610759576040517f08c379a0000000000000000000000000000000000000000000000000000000008152600401610750906113ce565b60405180910390fd5b80600160008573ffffffffffffffffffffffffffffffffffffffff1673ffffffffffffffffffffffffffffffffffffffff16815260200190815260200160002060008473ffffffffffffffffffffffffffffffffffffffff1673ffffffffffffffffffffffffffffffffffffffff168152602001908152602001600020819055508173ffffffffffffffffffffffffffffffffffffffff168373ffffffffffffffffffffffffffffffffffffffff167f8c5be1e5ebec7d5bd14f71427d1e84f3dd0314c0f7b2291e5b200ac8c7c3b925836040516108379190610e76565b60405180910390a3505050565b600061085084846105ec565b90507fffffffffffffffffffffffffffffffffffffffffffffffffffffffffffffffff81146108ca57818110156108bc576040517f08c379a00000000000000000000000000000000000000000000000000000000081526004016108b39061143a565b60405180910390fd5b6108c9848484840361067b565b5b50505050565b600073ffffffffffffffffffffffffffffffffffffffff168373ffffffffffffffffffffffffffffffffffffffff160361093f576040517f08c379a0000000000000000000000000000000000000000000000000000000008152600401610936906114cc565b60405180910390fd5b600073ffffffffffffffffffffffffffffffffffffffff168273ffffffffffffffffffffffffffffffffffffffff16036109ae576040517f08c379a00000000000000000000000000000000000000000000000000000000081526004016109a59061155e565b60405180910390fd5b6109b9838383610c9c565b60008060008573ffffffffffffffffffffffffffffffffffffffff1673ffffffffffffffffffffffffffffffffffffffff16815260200190815260200160002054905081811015610a3f576040517f08c379a0000000000000000000000000000000000000000000000000000000008152600401610a36906115f0565b60405180910390fd5b8181036000808673ffffffffffffffffffffffffffffffffffffffff1673ffffffffffffffffffffffffffffffffffffffff16815260200190815260200160002081905550816000808573ffffffffffffffffffffffffffffffffffffffff1673ffffffffffffffffffffffffffffffffffffffff168152602001908152602001600020600082825401925050819055508273ffffffffffffffffffffffffffffffffffffffff168473ffffffffffffffffffffffffffffffffffffffff167fddf252ad1be2c89b69c2b068fc378daa952ba7f163c4a11628f55a4df523b3ef84604051610b2d9190610e76565b60405180910390a3610b40848484610ca1565b50505050565b600073ffffffffffffffffffffffffffffffffffffffff168273ffffffffffffffffffffffffffffffffffffffff1603610bb5576040517f08c379a0000000000000000000000000000000000000000000000000000000008152600401610bac9061165c565b60405180910390fd5b610bc160008383610c9c565b8060026000828254610bd39190611044565b92505081905550806000808473ffffffffffffffffffffffffffffffffffffffff1673ffffffffffffffffffffffffffffffffffffffff168152602001908152602001600020600082825401925050819055508173ffffffffffffffffffffffffffffffffffffffff16600073ffffffffffffffffffffffffffffffffffffffff167fddf252ad1be2c89b69c2b068fc378daa952ba7f163c4a11628f55a4df523b3ef83604051610c849190610e76565b60405180910390a3610c9860008383610ca1565b5050565b505050565b505050565b600081519050919050565b600082825260208201905092915050565b60005b83811015610ce0578082015181840152602081019050610cc5565b60008484015250505050565b6000601f19601f8301169050919050565b6000610d0882610ca6565b610d128185610cb1565b9350610d22818560208601610cc2565b610d2b81610cec565b840191505092915050565b60006020820190508181036000830152610d508184610cfd565b905092915050565b600080fd5b600073ffffffffffffffffffffffffffffffffffffffff82169050919050565b6000610d8882610d5d565b9050919050565b610d9881610d7d565b8114610da357600080fd5b50565b600081359050610db581610d8f565b92915050565b6000819050919050565b610dce81610dbb565b8114610dd957600080fd5b50565b600081359050610deb81610dc5565b92915050565b60008060408385031215610e0857610e07610d58565b5b6000610e1685828601610da6565b9250506020610e2785828601610ddc565b9150509250929050565b60008115159050919050565b610e4681610e31565b82525050565b6000602082019050610e616000830184610e3d565b92915050565b610e7081610dbb565b82525050565b6000602082019050610e8b6000830184610e67565b92915050565b600080600060608486031215610eaa57610ea9610d58565b5b6000610eb886828701610da6565b9350506020610ec986828701610da6565b9250506040610eda86828701610ddc565b9150509250925092565b600060ff82169050919050565b610efa81610ee4565b82525050565b6000602082019050610f156000830184610ef1565b92915050565b600060208284031215610f3157610f30610d58565b5b6000610f3f84828501610da6565b91505092915050565b600060208284031215610f5e57610f5d610d58565b5b6000610f6c84828501610ddc565b91505092915050565b60008060408385031215610f8c57610f8b610d58565b5b6000610f9a85828601610da6565b9250506020610fab85828601610da6565b9150509250929050565b7f4e487b7100000000000000000000000000000000000000000000000000000000600052602260045260246000fd5b60006002820490506001821680610ffc57607f821691505b60208210810361100f5761100e610fb5565b5b50919050565b7f4e487b7100000000000000000000000000000000000000000000000000000000600052601160045260246000fd5b600061104f82610dbb565b915061105a83610dbb565b925082820190508082111561107257611071611015565b5b92915050565b60008160011c9050919050565b6000808291508390505b60018511156110cf578086048111156110ab576110aa611015565b5b60018516156110ba5780820291505b80810290506110c885611078565b945061108f565b94509492505050565b6000826110e857600190506111a4565b816110f657600090506111a4565b816001811461110c576002811461111657611145565b60019150506111a4565b60ff84111561112857611127611015565b5b8360020a91508482111561113f5761113e611015565b5b506111a4565b5060208310610133831016604e8410600b841016171561117a5782820a90508381111561117557611174611015565b5b6111a4565b6111878484846001611085565b9250905081840481111561119e5761119d611015565b5b81810290505b9392505050565b60006111b682610dbb565b91506111c183610ee4565b92506111ee7fffffffffffffffffffffffffffffffffffffffffffffffffffffffffffffffff84846110d8565b905092915050565b600061120182610dbb565b915061120c83610dbb565b925082820261121a81610dbb565b9150828204841483151761123157611230611015565b5b5092915050565b7f45524332303a2064656372656173656420616c6c6f77616e63652062656c6f7760008201527f207a65726f000000000000000000000000000000000000000000000000000000602082015250565b6000611294602583610cb1565b915061129f82611238565b604082019050919050565b600060208201905081810360008301526112c381611287565b9050919050565b7f45524332303a20617070726f76652066726f6d20746865207a65726f2061646460008201527f7265737300000000000000000000000000000000000000000000000000000000602082015250565b6000611326602483610cb1565b9150611331826112ca565b604082019050919050565b6000602082019050818103600083015261135581611319565b9050919050565b7f45524332303a20617070726f766520746f20746865207a65726f20616464726560008201527f7373000000000000000000000000000000000000000000000000000000000000602082015250565b60006113b8602283610cb1565b91506113c38261135c565b604082019050919050565b600060208201905081810360008301526113e7816113ab565b9050919050565b7f45524332303a20696e73756666696369656e7420616c6c6f77616e6365000000600082015250565b6000611424601d83610cb1565b915061142f826113ee565b602082019050919050565b6000602082019050818103600083015261145381611417565b9050919050565b7f45524332303a207472616e736665722066726f6d20746865207a65726f20616460008201527f6472657373000000000000000000000000000000000000000000000000000000602082015250565b60006114b6602583610cb1565b91506114c18261145a565b604082019050919050565b600060208201905081810360008301526114e5816114a9565b9050919050565b7f45524332303a207472616e7366657220746f20746865207a65726f206164647260008201527f6573730000000000000000000000000000000000000000000000000000000000602082015250565b6000611548602383610cb1565b9150611553826114ec565b604082019050919050565b600060208201905081810360008301526115778161153b565b9050919050565b7f45524332303a207472616e7366657220616d6f756e742065786365656473206260008201527f616c616e63650000000000000000000000000000000000000000000000000000602082015250565b60006115da602683610cb1565b91506115e58261157e565b604082019050919050565b60006020820190508181036000830152611609816115cd565b9050919050565b7f45524332303a206d696e7420746f20746865207a65726f206164647265737300600082015250565b6000611646601f83610cb1565b915061165182611610565b602082019050919050565b6000602082019050818103600083015261167581611639565b905091905056fea26469706673582212203102dc7d898edbefbe73b336af9d1b41328026d8e298ae8ed9b72f29444dff3a64736f6c63430008180033a2646970667358221220d921ca13da239f7ef92501c7ff12ec2dfd009a5191c0bb97371ea18aba4fa8d264736f6c63430008180033",
  "linkReferences": {},
  "deployedLinkReferences": {}
}