{
  "_format": "hh-sol-artifact-1",
  "contractName": "Main",
  "sourceName": "contracts/main.sol",
  "abi": [
    {
      "inputs": [],
      "stateMutability": "nonpayable",
      "type": "constructor"
    },
    {
      "inputs": [],
      "name": "Owner",
      "outputs": [
        {
          "internalType": "address payable",
          "name": "",
          "type": "address"
        }
      ],
      "stateMutability": "view",
      "type": "function"
    },
    {
      "inputs": [
        {
          "internalType": "string",
          "name": "symbol",
          "type": "string"
        }
      ],
      "name": "getTokenHolderDetails",
      "outputs": [
        {
          "internalType": "address",
          "name": "holderAddress",
          "type": "address"
        },
        {
          "internalType": "string",
          "name": "tokenName",
          "type": "string"
        },
        {
          "internalType": "string",
          "name": "tokenSymbol",
          "type": "string"
        },
        {
          "internalType": "uint256",
          "name": "number",
          "type": "uint256"
        },
        {
          "internalType": "uint256",
          "name": "amount",
          "type": "uint256"
        }
      ],
      "stateMutability": "view",
      "type": "function"
    },
    {
      "inputs": [
        {
          "internalType": "address",
          "name": "tokenAddress",
          "type": "address"
        }
      ],
      "name": "getTokenHolderDetailsWithAddress",
      "outputs": [
        {
          "internalType": "address",
          "name": "holderAddress",
          "type": "address"
        },
        {
          "internalType": "string",
          "name": "tokenName",
          "type": "string"
        },
        {
          "internalType": "string",
          "name": "tokenSymbol",
          "type": "string"
        },
        {
          "internalType": "uint256",
          "name": "number",
          "type": "uint256"
        },
        {
          "internalType": "uint256",
          "name": "amount",
          "type": "uint256"
        }
      ],
      "stateMutability": "view",
      "type": "function"
    },
    {
      "inputs": [
        {
          "internalType": "string",
          "name": "tokenName",
          "type": "string"
        },
        {
          "internalType": "string",
          "name": "tokenSymbol",
          "type": "string"
        },
        {
          "internalType": "uint256",
          "name": "number",
          "type": "uint256"
        }
      ],
      "name": "mintTokens",
      "outputs": [],
      "stateMutability": "payable",
      "type": "function"
    },
    {
      "inputs": [],
      "name": "showToken",
      "outputs": [
        {
          "internalType": "string[]",
          "name": "",
          "type": "string[]"
        }
      ],
      "stateMutability": "view",
      "type": "function"
    }
  ],
  "bytecode": "0x608060405234801561001057600080fd5b50336000806101000a81548173ffffffffffffffffffffffffffffffffffffffff021916908373ffffffffffffffffffffffffffffffffffffffff1602179055506132de806100606000396000f3fe608060405260043610620000505760003560e01c8063b0d534961462000055578063b4a99a4e146200009d578063d1d6908514620000cd578063ec21148814620000fd578063f10797ab1462000145575b600080fd5b3480156200006257600080fd5b506200008160048036038101906200007b919062000c59565b62000165565b6040516200009495949392919062000d93565b60405180910390f35b348015620000aa57600080fd5b50620000b562000304565b604051620000c4919062000e23565b60405180910390f35b348015620000da57600080fd5b50620000e562000328565b604051620000f4919062000f62565b60405180910390f35b3480156200010a57600080fd5b5062000129600480360381019062000123919062000fb7565b6200040b565b6040516200013c95949392919062000d93565b60405180910390f35b6200016360048036038101906200015d91906200101a565b620005c9565b005b60006060806000806000600287604051620001819190620010f6565b908152602001604051809103902090508060000160009054906101000a900473ffffffffffffffffffffffffffffffffffffffff16816001018260020183600301548460040154838054620001d6906200113e565b80601f016020809104026020016040519081016040528092919081815260200182805462000204906200113e565b8015620002555780601f10620002295761010080835404028352916020019162000255565b820191906000526020600020905b8154815290600101906020018083116200023757829003601f168201915b505050505093508280546200026a906200113e565b80601f016020809104026020016040519081016040528092919081815260200182805462000298906200113e565b8015620002e95780601f10620002bd57610100808354040283529160200191620002e9565b820191906000526020600020905b815481529060010190602001808311620002cb57829003601f168201915b50505050509250955095509550955095505091939590929450565b60008054906101000a900473ffffffffffffffffffffffffffffffffffffffff1681565b60606001805480602002602001604051908101604052809291908181526020016000905b82821015620004025783829060005260206000200180546200036e906200113e565b80601f01602080910402602001604051908101604052809291908181526020018280546200039c906200113e565b8015620003ed5780601f10620003c157610100808354040283529160200191620003ed565b820191906000526020600020905b815481529060010190602001808311620003cf57829003601f168201915b5050505050815260200190600101906200034c565b50505050905090565b60006060806000806000600560008873ffffffffffffffffffffffffffffffffffffffff1673ffffffffffffffffffffffffffffffffffffffff16815260200190815260200160002090508060000160009054906101000a900473ffffffffffffffffffffffffffffffffffffffff168160010182600201836003015484600401548380546200049b906200113e565b80601f0160208091040260200160405190810160405280929190818152602001828054620004c9906200113e565b80156200051a5780601f10620004ee576101008083540402835291602001916200051a565b820191906000526020600020905b815481529060010190602001808311620004fc57829003601f168201915b505050505093508280546200052f906200113e565b80601f01602080910402602001604051908101604052809291908181526020018280546200055d906200113e565b8015620005ae5780601f106200058257610100808354040283529160200191620005ae565b820191906000526020600020905b8154815290600101906020018083116200059057829003601f168201915b50505050509250955095509550955095505091939590929450565b6000600283604051620005dd9190620010f6565b90815260200160405180910390209050600073ffffffffffffffffffffffffffffffffffffffff168160000160009054906101000a900473ffffffffffffffffffffffffffffffffffffffff1673ffffffffffffffffffffffffffffffffffffffff1614620006e1578060000160009054906101000a900473ffffffffffffffffffffffffffffffffffffffff1673ffffffffffffffffffffffffffffffffffffffff163373ffffffffffffffffffffffffffffffffffffffff1614620006db576040517f08c379a0000000000000000000000000000000000000000000000000000000008152600401620006d290620011e9565b60405180910390fd5b620009a9565b6040518060a001604052803373ffffffffffffffffffffffffffffffffffffffff1681526020018581526020018481526020018381526020016000815250600284604051620007319190620010f6565b908152602001604051809103902060008201518160000160006101000a81548173ffffffffffffffffffffffffffffffffffffffff021916908373ffffffffffffffffffffffffffffffffffffffff16021790555060208201518160010190816200079d9190620013dd565b506040820151816002019081620007b59190620013dd565b506060820151816003015560808201518160040155905050600283604051620007df9190620010f6565b9081526020016040518091039020600560003373ffffffffffffffffffffffffffffffffffffffff1673ffffffffffffffffffffffffffffffffffffffff1681526020019081526020016000206000820160009054906101000a900473ffffffffffffffffffffffffffffffffffffffff168160000160006101000a81548173ffffffffffffffffffffffffffffffffffffffff021916908373ffffffffffffffffffffffffffffffffffffffff16021790555060018201816001019081620008a99190620014dc565b5060028201816002019081620008c09190620014dc565b5060038201548160030155600482015481600401559050506001839080600181540180825580915050600190039060005260206000200160009091909190915090816200090e9190620013dd565b5083836040516200091f9062000ad5565b6200092c929190620015dd565b604051809103906000f08015801562000949573d6000803e3d6000fd5b506003846040516200095c9190620010f6565b908152602001604051809103902060006101000a81548173ffffffffffffffffffffffffffffffffffffffff021916908373ffffffffffffffffffffffffffffffffffffffff1602179055505b6000600384604051620009bd9190620010f6565b908152602001604051809103902060009054906101000a900473ffffffffffffffffffffffffffffffffffffffff1690508073ffffffffffffffffffffffffffffffffffffffff166397304ced846040518263ffffffff1660e01b815260040162000a29919062001618565b600060405180830381600087803b15801562000a4457600080fd5b505af115801562000a59573d6000803e3d6000fd5b5050505082826003018190555060008054906101000a900473ffffffffffffffffffffffffffffffffffffffff1673ffffffffffffffffffffffffffffffffffffffff166108fc349081150290604051600060405180830381858888f1935050505015801562000acd573d6000803e3d6000fd5b505050505050565b611c73806200163683390190565b6000604051905090565b600080fd5b600080fd5b600080fd5b600080fd5b6000601f19601f8301169050919050565b7f4e487b7100000000000000000000000000000000000000000000000000000000600052604160045260246000fd5b62000b4c8262000b01565b810181811067ffffffffffffffff8211171562000b6e5762000b6d62000b12565b5b80604052505050565b600062000b8362000ae3565b905062000b91828262000b41565b919050565b600067ffffffffffffffff82111562000bb45762000bb362000b12565b5b62000bbf8262000b01565b9050602081019050919050565b82818337600083830152505050565b600062000bf262000bec8462000b96565b62000b77565b90508281526020810184848401111562000c115762000c1062000afc565b5b62000c1e84828562000bcc565b509392505050565b600082601f83011262000c3e5762000c3d62000af7565b5b813562000c5084826020860162000bdb565b91505092915050565b60006020828403121562000c725762000c7162000aed565b5b600082013567ffffffffffffffff81111562000c935762000c9262000af2565b5b62000ca18482850162000c26565b91505092915050565b600073ffffffffffffffffffffffffffffffffffffffff82169050919050565b600062000cd78262000caa565b9050919050565b62000ce98162000cca565b82525050565b600081519050919050565b600082825260208201905092915050565b60005b8381101562000d2b57808201518184015260208101905062000d0e565b60008484015250505050565b600062000d448262000cef565b62000d50818562000cfa565b935062000d6281856020860162000d0b565b62000d6d8162000b01565b840191505092915050565b6000819050919050565b62000d8d8162000d78565b82525050565b600060a08201905062000daa600083018862000cde565b818103602083015262000dbe818762000d37565b9050818103604083015262000dd4818662000d37565b905062000de5606083018562000d82565b62000df4608083018462000d82565b9695505050505050565b600062000e0b8262000caa565b9050919050565b62000e1d8162000dfe565b82525050565b600060208201905062000e3a600083018462000e12565b92915050565b600081519050919050565b600082825260208201905092915050565b6000819050602082019050919050565b600082825260208201905092915050565b600062000e8a8262000cef565b62000e96818562000e6c565b935062000ea881856020860162000d0b565b62000eb38162000b01565b840191505092915050565b600062000ecc838362000e7d565b905092915050565b6000602082019050919050565b600062000eee8262000e40565b62000efa818562000e4b565b93508360208202850162000f0e8562000e5c565b8060005b8581101562000f50578484038952815162000f2e858262000ebe565b945062000f3b8362000ed4565b925060208a0199505060018101905062000f12565b50829750879550505050505092915050565b6000602082019050818103600083015262000f7e818462000ee1565b905092915050565b62000f918162000cca565b811462000f9d57600080fd5b50565b60008135905062000fb18162000f86565b92915050565b60006020828403121562000fd05762000fcf62000aed565b5b600062000fe08482850162000fa0565b91505092915050565b62000ff48162000d78565b81146200100057600080fd5b50565b600081359050620010148162000fe9565b92915050565b60008060006060848603121562001036576200103562000aed565b5b600084013567ffffffffffffffff81111562001057576200105662000af2565b5b620010658682870162000c26565b935050602084013567ffffffffffffffff81111562001089576200108862000af2565b5b620010978682870162000c26565b9250506040620010aa8682870162001003565b9150509250925092565b600081905092915050565b6000620010cc8262000cef565b620010d88185620010b4565b9350620010ea81856020860162000d0b565b80840191505092915050565b6000620011048284620010bf565b915081905092915050565b7f4e487b7100000000000000000000000000000000000000000000000000000000600052602260045260246000fd5b600060028204905060018216806200115757607f821691505b6020821081036200116d576200116c6200110f565b5b50919050565b7f4f6e6c792074686520746f6b656e20686f6c6465722063616e206d696e74207460008201527f6f6b656e732e0000000000000000000000000000000000000000000000000000602082015250565b6000620011d160268362000cfa565b9150620011de8262001173565b604082019050919050565b600060208201905081810360008301526200120481620011c2565b9050919050565b60008190508160005260206000209050919050565b60006020601f8301049050919050565b600082821b905092915050565b6000600883026200126f7fffffffffffffffffffffffffffffffffffffffffffffffffffffffffffffffff8262001230565b6200127b868362001230565b95508019841693508086168417925050509392505050565b6000819050919050565b6000620012be620012b8620012b28462000d78565b62001293565b62000d78565b9050919050565b6000819050919050565b620012da836200129d565b620012f2620012e982620012c5565b8484546200123d565b825550505050565b600090565b62001309620012fa565b62001316818484620012cf565b505050565b5b818110156200133e5762001332600082620012ff565b6001810190506200131c565b5050565b601f8211156200138d5762001357816200120b565b620013628462001220565b8101602085101562001372578190505b6200138a620013818562001220565b8301826200131b565b50505b505050565b600082821c905092915050565b6000620013b26000198460080262001392565b1980831691505092915050565b6000620013cd83836200139f565b9150826002028217905092915050565b620013e88262000cef565b67ffffffffffffffff81111562001404576200140362000b12565b5b6200141082546200113e565b6200141d82828562001342565b600060209050601f83116001811462001455576000841562001440578287015190505b6200144c8582620013bf565b865550620014bc565b601f19841662001465866200120b565b60005b828110156200148f5784890151825560018201915060208501945060208101905062001468565b86831015620014af5784890151620014ab601f8916826200139f565b8355505b6001600288020188555050505b505050505050565b600081549050620014d5816200113e565b9050919050565b818103620014ec575050620015db565b620014f782620014c4565b67ffffffffffffffff81111562001513576200151262000b12565b5b6200151f82546200113e565b6200152c82828562001342565b6000601f8311600181146200156057600084156200154b578287015490505b620015578582620013bf565b865550620015d4565b601f19841662001570876200120b565b96506200157d866200120b565b60005b82811015620015a75784890154825560018201915060018501945060208101905062001580565b86831015620015c75784890154620015c3601f8916826200139f565b8355505b6001600288020188555050505b5050505050505b565b60006040820190508181036000830152620015f9818562000d37565b905081810360208301526200160f818462000d37565b90509392505050565b60006020820190506200162f600083018462000d82565b9291505056fe60806040523480156200001157600080fd5b5060405162001c7338038062001c738339818101604052810190620000379190620001fa565b818181600390816200004a9190620004ca565b5080600490816200005c9190620004ca565b5050505050620005b1565b6000604051905090565b600080fd5b600080fd5b600080fd5b600080fd5b6000601f19601f8301169050919050565b7f4e487b7100000000000000000000000000000000000000000000000000000000600052604160045260246000fd5b620000d08262000085565b810181811067ffffffffffffffff82111715620000f257620000f162000096565b5b80604052505050565b60006200010762000067565b9050620001158282620000c5565b919050565b600067ffffffffffffffff82111562000138576200013762000096565b5b620001438262000085565b9050602081019050919050565b60005b838110156200017057808201518184015260208101905062000153565b60008484015250505050565b6000620001936200018d846200011a565b620000fb565b905082815260208101848484011115620001b257620001b162000080565b5b620001bf84828562000150565b509392505050565b600082601f830112620001df57620001de6200007b565b5b8151620001f18482602086016200017c565b91505092915050565b6000806040838503121562000214576200021362000071565b5b600083015167ffffffffffffffff81111562000235576200023462000076565b5b6200024385828601620001c7565b925050602083015167ffffffffffffffff81111562000267576200026662000076565b5b6200027585828601620001c7565b9150509250929050565b600081519050919050565b7f4e487b7100000000000000000000000000000000000000000000000000000000600052602260045260246000fd5b60006002820490506001821680620002d257607f821691505b602082108103620002e857620002e76200028a565b5b50919050565b60008190508160005260206000209050919050565b60006020601f8301049050919050565b600082821b905092915050565b600060088302620003527fffffffffffffffffffffffffffffffffffffffffffffffffffffffffffffffff8262000313565b6200035e868362000313565b95508019841693508086168417925050509392505050565b6000819050919050565b6000819050919050565b6000620003ab620003a56200039f8462000376565b62000380565b62000376565b9050919050565b6000819050919050565b620003c7836200038a565b620003df620003d682620003b2565b84845462000320565b825550505050565b600090565b620003f6620003e7565b62000403818484620003bc565b505050565b5b818110156200042b576200041f600082620003ec565b60018101905062000409565b5050565b601f8211156200047a576200044481620002ee565b6200044f8462000303565b810160208510156200045f578190505b620004776200046e8562000303565b83018262000408565b50505b505050565b600082821c905092915050565b60006200049f600019846008026200047f565b1980831691505092915050565b6000620004ba83836200048c565b9150826002028217905092915050565b620004d5826200027f565b67ffffffffffffffff811115620004f157620004f062000096565b5b620004fd8254620002b9565b6200050a8282856200042f565b600060209050601f8311600181146200054257600084156200052d578287015190505b620005398582620004ac565b865550620005a9565b601f1984166200055286620002ee565b60005b828110156200057c5784890151825560018201915060208501945060208101905062000555565b868310156200059c578489015162000598601f8916826200048c565b8355505b6001600288020188555050505b505050505050565b6116b280620005c16000396000f3fe6080604052600436106100a75760003560e01c806370a082311161006457806370a08231146101e457806395d89b411461022157806397304ced1461024c578063a457c2d714610268578063a9059cbb146102a5578063dd62ed3e146102e2576100a7565b806306fdde03146100ac578063095ea7b3146100d757806318160ddd1461011457806323b872dd1461013f578063313ce5671461017c57806339509351146101a7575b600080fd5b3480156100b857600080fd5b506100c161031f565b6040516100ce9190610d36565b60405180910390f35b3480156100e357600080fd5b506100fe60048036038101906100f99190610df1565b6103b1565b60405161010b9190610e4c565b60405180910390f35b34801561012057600080fd5b506101296103d4565b6040516101369190610e76565b60405180910390f35b34801561014b57600080fd5b5061016660048036038101906101619190610e91565b6103de565b6040516101739190610e4c565b60405180910390f35b34801561018857600080fd5b5061019161040d565b60405161019e9190610f00565b60405180910390f35b3480156101b357600080fd5b506101ce60048036038101906101c99190610df1565b610416565b6040516101db9190610e4c565b60405180910390f35b3480156101f057600080fd5b5061020b60048036038101906102069190610f1b565b61044d565b6040516102189190610e76565b60405180910390f35b34801561022d57600080fd5b50610236610495565b6040516102439190610d36565b60405180910390f35b61026660048036038101906102619190610f48565b610527565b005b34801561027457600080fd5b5061028f600480360381019061028a9190610df1565b610552565b60405161029c9190610e4c565b60405180910390f35b3480156102b157600080fd5b506102cc60048036038101906102c79190610df1565b6105c9565b6040516102d99190610e4c565b60405180910390f35b3480156102ee57600080fd5b5061030960048036038101906103049190610f75565b6105ec565b6040516103169190610e76565b60405180910390f35b60606003805461032e90610fe4565b80601f016020809104026020016040519081016040528092919081815260200182805461035a90610fe4565b80156103a75780601f1061037c576101008083540402835291602001916103a7565b820191906000526020600020905b81548152906001019060200180831161038a57829003601f168201915b5050505050905090565b6000806103bc610673565b90506103c981858561067b565b600191505092915050565b6000600254905090565b6000806103e9610673565b90506103f6858285610844565b6104018585856108d0565b60019150509392505050565b60006012905090565b600080610421610673565b905061044281858561043385896105ec565b61043d9190611044565b61067b565b600191505092915050565b60008060008373ffffffffffffffffffffffffffffffffffffffff1673ffffffffffffffffffffffffffffffffffffffff168152602001908152602001600020549050919050565b6060600480546104a490610fe4565b80601f01602080910402602001604051908101604052809291908181526020018280546104d090610fe4565b801561051d5780601f106104f25761010080835404028352916020019161051d565b820191906000526020600020905b81548152906001019060200180831161050057829003601f168201915b5050505050905090565b61054f3361053361040d565b600a61053f91906111ab565b8361054a91906111f6565b610b46565b50565b60008061055d610673565b9050600061056b82866105ec565b9050838110156105b0576040517f08c379a00000000000000000000000000000000000000000000000000000000081526004016105a7906112aa565b60405180910390fd5b6105bd828686840361067b565b60019250505092915050565b6000806105d4610673565b90506105e18185856108d0565b600191505092915050565b6000600160008473ffffffffffffffffffffffffffffffffffffffff1673ffffffffffffffffffffffffffffffffffffffff16815260200190815260200160002060008373ffffffffffffffffffffffffffffffffffffffff1673ffffffffffffffffffffffffffffffffffffffff16815260200190815260200160002054905092915050565b600033905090565b600073ffffffffffffffffffffffffffffffffffffffff168373ffffffffffffffffffffffffffffffffffffffff16036106ea576040517f08c379a00000000000000000000000000000000000000000000000000000000081526004016106e19061133c565b60405180910390fd5b600073ffffffffffffffffffffffffffffffffffffffff168273ffffffffffffffffffffffffffffffffffffffff1603610759576040517f08c379a0000000000000000000000000000000000000000000000000000000008152600401610750906113ce565b60405180910390fd5b80600160008573ffffffffffffffffffffffffffffffffffffffff1673ffffffffffffffffffffffffffffffffffffffff16815260200190815260200160002060008473ffffffffffffffffffffffffffffffffffffffff1673ffffffffffffffffffffffffffffffffffffffff168152602001908152602001600020819055508173ffffffffffffffffffffffffffffffffffffffff168373ffffffffffffffffffffffffffffffffffffffff167f8c5be1e5ebec7d5bd14f71427d1e84f3dd0314c0f7b2291e5b200ac8c7c3b925836040516108379190610e76565b60405180910390a3505050565b600061085084846105ec565b90507fffffffffffffffffffffffffffffffffffffffffffffffffffffffffffffffff81146108ca57818110156108bc576040517f08c379a00000000000000000000000000000000000000000000000000000000081526004016108b39061143a565b60405180910390fd5b6108c9848484840361067b565b5b50505050565b600073ffffffffffffffffffffffffffffffffffffffff168373ffffffffffffffffffffffffffffffffffffffff160361093f576040517f08c379a0000000000000000000000000000000000000000000000000000000008152600401610936906114cc565b60405180910390fd5b600073ffffffffffffffffffffffffffffffffffffffff168273ffffffffffffffffffffffffffffffffffffffff16036109ae576040517f08c379a00000000000000000000000000000000000000000000000000000000081526004016109a59061155e565b60405180910390fd5b6109b9838383610c9c565b60008060008573ffffffffffffffffffffffffffffffffffffffff1673ffffffffffffffffffffffffffffffffffffffff16815260200190815260200160002054905081811015610a3f576040517f08c379a0000000000000000000000000000000000000000000000000000000008152600401610a36906115f0565b60405180910390fd5b8181036000808673ffffffffffffffffffffffffffffffffffffffff1673ffffffffffffffffffffffffffffffffffffffff16815260200190815260200160002081905550816000808573ffffffffffffffffffffffffffffffffffffffff1673ffffffffffffffffffffffffffffffffffffffff168152602001908152602001600020600082825401925050819055508273ffffffffffffffffffffffffffffffffffffffff168473ffffffffffffffffffffffffffffffffffffffff167fddf252ad1be2c89b69c2b068fc378daa952ba7f163c4a11628f55a4df523b3ef84604051610b2d9190610e76565b60405180910390a3610b40848484610ca1565b50505050565b600073ffffffffffffffffffffffffffffffffffffffff168273ffffffffffffffffffffffffffffffffffffffff1603610bb5576040517f08c379a0000000000000000000000000000000000000000000000000000000008152600401610bac9061165c565b60405180910390fd5b610bc160008383610c9c565b8060026000828254610bd39190611044565b92505081905550806000808473ffffffffffffffffffffffffffffffffffffffff1673ffffffffffffffffffffffffffffffffffffffff168152602001908152602001600020600082825401925050819055508173ffffffffffffffffffffffffffffffffffffffff16600073ffffffffffffffffffffffffffffffffffffffff167fddf252ad1be2c89b69c2b068fc378daa952ba7f163c4a11628f55a4df523b3ef83604051610c849190610e76565b60405180910390a3610c9860008383610ca1565b5050565b505050565b505050565b600081519050919050565b600082825260208201905092915050565b60005b83811015610ce0578082015181840152602081019050610cc5565b60008484015250505050565b6000601f19601f8301169050919050565b6000610d0882610ca6565b610d128185610cb1565b9350610d22818560208601610cc2565b610d2b81610cec565b840191505092915050565b60006020820190508181036000830152610d508184610cfd565b905092915050565b600080fd5b600073ffffffffffffffffffffffffffffffffffffffff82169050919050565b6000610d8882610d5d565b9050919050565b610d9881610d7d565b8114610da357600080fd5b50565b600081359050610db581610d8f565b92915050565b6000819050919050565b610dce81610dbb565b8114610dd957600080fd5b50565b600081359050610deb81610dc5565b92915050565b60008060408385031215610e0857610e07610d58565b5b6000610e1685828601610da6565b9250506020610e2785828601610ddc565b9150509250929050565b60008115159050919050565b610e4681610e31565b82525050565b6000602082019050610e616000830184610e3d565b92915050565b610e7081610dbb565b82525050565b6000602082019050610e8b6000830184610e67565b92915050565b600080600060608486031215610eaa57610ea9610d58565b5b6000610eb886828701610da6565b9350506020610ec986828701610da6565b9250506040610eda86828701610ddc565b9150509250925092565b600060ff82169050919050565b610efa81610ee4565b82525050565b6000602082019050610f156000830184610ef1565b92915050565b600060208284031215610f3157610f30610d58565b5b6000610f3f84828501610da6565b91505092915050565b600060208284031215610f5e57610f5d610d58565b5b6000610f6c84828501610ddc565b91505092915050565b60008060408385031215610f8c57610f8b610d58565b5b6000610f9a85828601610da6565b9250506020610fab85828601610da6565b9150509250929050565b7f4e487b7100000000000000000000000000000000000000000000000000000000600052602260045260246000fd5b60006002820490506001821680610ffc57607f821691505b60208210810361100f5761100e610fb5565b5b50919050565b7f4e487b7100000000000000000000000000000000000000000000000000000000600052601160045260246000fd5b600061104f82610dbb565b915061105a83610dbb565b925082820190508082111561107257611071611015565b5b92915050565b60008160011c9050919050565b6000808291508390505b60018511156110cf578086048111156110ab576110aa611015565b5b60018516156110ba5780820291505b80810290506110c885611078565b945061108f565b94509492505050565b6000826110e857600190506111a4565b816110f657600090506111a4565b816001811461110c576002811461111657611145565b60019150506111a4565b60ff84111561112857611127611015565b5b8360020a91508482111561113f5761113e611015565b5b506111a4565b5060208310610133831016604e8410600b841016171561117a5782820a90508381111561117557611174611015565b5b6111a4565b6111878484846001611085565b9250905081840481111561119e5761119d611015565b5b81810290505b9392505050565b60006111b682610dbb565b91506111c183610ee4565b92506111ee7fffffffffffffffffffffffffffffffffffffffffffffffffffffffffffffffff84846110d8565b905092915050565b600061120182610dbb565b915061120c83610dbb565b925082820261121a81610dbb565b9150828204841483151761123157611230611015565b5b5092915050565b7f45524332303a2064656372656173656420616c6c6f77616e63652062656c6f7760008201527f207a65726f000000000000000000000000000000000000000000000000000000602082015250565b6000611294602583610cb1565b915061129f82611238565b604082019050919050565b600060208201905081810360008301526112c381611287565b9050919050565b7f45524332303a20617070726f76652066726f6d20746865207a65726f2061646460008201527f7265737300000000000000000000000000000000000000000000000000000000602082015250565b6000611326602483610cb1565b9150611331826112ca565b604082019050919050565b6000602082019050818103600083015261135581611319565b9050919050565b7f45524332303a20617070726f766520746f20746865207a65726f20616464726560008201527f7373000000000000000000000000000000000000000000000000000000000000602082015250565b60006113b8602283610cb1565b91506113c38261135c565b604082019050919050565b600060208201905081810360008301526113e7816113ab565b9050919050565b7f45524332303a20696e73756666696369656e7420616c6c6f77616e6365000000600082015250565b6000611424601d83610cb1565b915061142f826113ee565b602082019050919050565b6000602082019050818103600083015261145381611417565b9050919050565b7f45524332303a207472616e736665722066726f6d20746865207a65726f20616460008201527f6472657373000000000000000000000000000000000000000000000000000000602082015250565b60006114b6602583610cb1565b91506114c18261145a565b604082019050919050565b600060208201905081810360008301526114e5816114a9565b9050919050565b7f45524332303a207472616e7366657220746f20746865207a65726f206164647260008201527f6573730000000000000000000000000000000000000000000000000000000000602082015250565b6000611548602383610cb1565b9150611553826114ec565b604082019050919050565b600060208201905081810360008301526115778161153b565b9050919050565b7f45524332303a207472616e7366657220616d6f756e742065786365656473206260008201527f616c616e63650000000000000000000000000000000000000000000000000000602082015250565b60006115da602683610cb1565b91506115e58261157e565b604082019050919050565b60006020820190508181036000830152611609816115cd565b9050919050565b7f45524332303a206d696e7420746f20746865207a65726f206164647265737300600082015250565b6000611646601f83610cb1565b915061165182611610565b602082019050919050565b6000602082019050818103600083015261167581611639565b905091905056fea26469706673582212203102dc7d898edbefbe73b336af9d1b41328026d8e298ae8ed9b72f29444dff3a64736f6c63430008180033a26469706673582212207d68a8b608223c3ce0ed45012d4c1bd553f19125ff4a6e0642df513128cccd7464736f6c63430008180033",
  "linkReferences": {},
  "deployedLinkReferences": {}
}