{
  "_format": "hh-sol-artifact-1",
  "contractName": "Token",
  "sourceName": "contracts/token.sol",
  "abi": [
    {
      "inputs": [
        {
          "internalType": "string",
          "name": "tokenName",
          "type": "string"
        },
        {
          "internalType": "string",
          "name": "tokenSymbol",
          "type": "string"
        }
      ],
      "stateMutability": "nonpayable",
      "type": "constructor"
    },
    {
      "anonymous": false,
      "inputs": [
        {
          "indexed": true,
          "internalType": "address",
          "name": "owner",
          "type": "address"
        },
        {
          "indexed": true,
          "internalType": "address",
          "name": "spender",
          "type": "address"
        },
        {
          "indexed": false,
          "internalType": "uint256",
          "name": "value",
          "type": "uint256"
        }
      ],
      "name": "Approval",
      "type": "event"
    },
    {
      "anonymous": false,
      "inputs": [
        {
          "indexed": true,
          "internalType": "address",
          "name": "from",
          "type": "address"
        },
        {
          "indexed": true,
          "internalType": "address",
          "name": "to",
          "type": "address"
        },
        {
          "indexed": false,
          "internalType": "uint256",
          "name": "value",
          "type": "uint256"
        }
      ],
      "name": "Transfer",
      "type": "event"
    },
    {
      "inputs": [
        {
          "internalType": "address",
          "name": "owner",
          "type": "address"
        },
        {
          "internalType": "address",
          "name": "spender",
          "type": "address"
        }
      ],
      "name": "allowance",
      "outputs": [
        {
          "internalType": "uint256",
          "name": "",
          "type": "uint256"
        }
      ],
      "stateMutability": "view",
      "type": "function"
    },
    {
      "inputs": [
        {
          "internalType": "address",
          "name": "spender",
          "type": "address"
        },
        {
          "internalType": "uint256",
          "name": "amount",
          "type": "uint256"
        }
      ],
      "name": "approve",
      "outputs": [
        {
          "internalType": "bool",
          "name": "",
          "type": "bool"
        }
      ],
      "stateMutability": "nonpayable",
      "type": "function"
    },
    {
      "inputs": [
        {
          "internalType": "address",
          "name": "account",
          "type": "address"
        }
      ],
      "name": "balanceOf",
      "outputs": [
        {
          "internalType": "uint256",
          "name": "",
          "type": "uint256"
        }
      ],
      "stateMutability": "view",
      "type": "function"
    },
    {
      "inputs": [],
      "name": "decimals",
      "outputs": [
        {
          "internalType": "uint8",
          "name": "",
          "type": "uint8"
        }
      ],
      "stateMutability": "view",
      "type": "function"
    },
    {
      "inputs": [
        {
          "internalType": "address",
          "name": "spender",
          "type": "address"
        },
        {
          "internalType": "uint256",
          "name": "subtractedValue",
          "type": "uint256"
        }
      ],
      "name": "decreaseAllowance",
      "outputs": [
        {
          "internalType": "bool",
          "name": "",
          "type": "bool"
        }
      ],
      "stateMutability": "nonpayable",
      "type": "function"
    },
    {
      "inputs": [
        {
          "internalType": "address",
          "name": "spender",
          "type": "address"
        },
        {
          "internalType": "uint256",
          "name": "addedValue",
          "type": "uint256"
        }
      ],
      "name": "increaseAllowance",
      "outputs": [
        {
          "internalType": "bool",
          "name": "",
          "type": "bool"
        }
      ],
      "stateMutability": "nonpayable",
      "type": "function"
    },
    {
      "inputs": [
        {
          "internalType": "uint256",
          "name": "number",
          "type": "uint256"
        }
      ],
      "name": "mintTokens",
      "outputs": [],
      "stateMutability": "nonpayable",
      "type": "function"
    },
    {
      "inputs": [],
      "name": "name",
      "outputs": [
        {
          "internalType": "string",
          "name": "",
          "type": "string"
        }
      ],
      "stateMutability": "view",
      "type": "function"
    },
    {
      "inputs": [],
      "name": "symbol",
      "outputs": [
        {
          "internalType": "string",
          "name": "",
          "type": "string"
        }
      ],
      "stateMutability": "view",
      "type": "function"
    },
    {
      "inputs": [],
      "name": "totalSupply",
      "outputs": [
        {
          "internalType": "uint256",
          "name": "",
          "type": "uint256"
        }
      ],
      "stateMutability": "view",
      "type": "function"
    },
    {
      "inputs": [
        {
          "internalType": "address",
          "name": "to",
          "type": "address"
        },
        {
          "internalType": "uint256",
          "name": "amount",
          "type": "uint256"
        }
      ],
      "name": "transfer",
      "outputs": [
        {
          "internalType": "bool",
          "name": "",
          "type": "bool"
        }
      ],
      "stateMutability": "nonpayable",
      "type": "function"
    },
    {
      "inputs": [
        {
          "internalType": "address",
          "name": "from",
          "type": "address"
        },
        {
          "internalType": "address",
          "name": "to",
          "type": "address"
        },
        {
          "internalType": "uint256",
          "name": "amount",
          "type": "uint256"
        }
      ],
      "name": "transferFrom",
      "outputs": [
        {
          "internalType": "bool",
          "name": "",
          "type": "bool"
        }
      ],
      "stateMutability": "nonpayable",
      "type": "function"
    }
  ],
  "bytecode": "0x60806040523480156200001157600080fd5b5060405162001bf138038062001bf18339818101604052810190620000379190620001fa565b818181600390816200004a9190620004ca565b5080600490816200005c9190620004ca565b5050505050620005b1565b6000604051905090565b600080fd5b600080fd5b600080fd5b600080fd5b6000601f19601f8301169050919050565b7f4e487b7100000000000000000000000000000000000000000000000000000000600052604160045260246000fd5b620000d08262000085565b810181811067ffffffffffffffff82111715620000f257620000f162000096565b5b80604052505050565b60006200010762000067565b9050620001158282620000c5565b919050565b600067ffffffffffffffff82111562000138576200013762000096565b5b620001438262000085565b9050602081019050919050565b60005b838110156200017057808201518184015260208101905062000153565b60008484015250505050565b6000620001936200018d846200011a565b620000fb565b905082815260208101848484011115620001b257620001b162000080565b5b620001bf84828562000150565b509392505050565b600082601f830112620001df57620001de6200007b565b5b8151620001f18482602086016200017c565b91505092915050565b6000806040838503121562000214576200021362000071565b5b600083015167ffffffffffffffff81111562000235576200023462000076565b5b6200024385828601620001c7565b925050602083015167ffffffffffffffff81111562000267576200026662000076565b5b6200027585828601620001c7565b9150509250929050565b600081519050919050565b7f4e487b7100000000000000000000000000000000000000000000000000000000600052602260045260246000fd5b60006002820490506001821680620002d257607f821691505b602082108103620002e857620002e76200028a565b5b50919050565b60008190508160005260206000209050919050565b60006020601f8301049050919050565b600082821b905092915050565b600060088302620003527fffffffffffffffffffffffffffffffffffffffffffffffffffffffffffffffff8262000313565b6200035e868362000313565b95508019841693508086168417925050509392505050565b6000819050919050565b6000819050919050565b6000620003ab620003a56200039f8462000376565b62000380565b62000376565b9050919050565b6000819050919050565b620003c7836200038a565b620003df620003d682620003b2565b84845462000320565b825550505050565b600090565b620003f6620003e7565b62000403818484620003bc565b505050565b5b818110156200042b576200041f600082620003ec565b60018101905062000409565b5050565b601f8211156200047a576200044481620002ee565b6200044f8462000303565b810160208510156200045f578190505b620004776200046e8562000303565b83018262000408565b50505b505050565b600082821c905092915050565b60006200049f600019846008026200047f565b1980831691505092915050565b6000620004ba83836200048c565b9150826002028217905092915050565b620004d5826200027f565b67ffffffffffffffff811115620004f157620004f062000096565b5b620004fd8254620002b9565b6200050a8282856200042f565b600060209050601f8311600181146200054257600084156200052d578287015190505b620005398582620004ac565b865550620005a9565b601f1984166200055286620002ee565b60005b828110156200057c5784890151825560018201915060208501945060208101905062000555565b868310156200059c578489015162000598601f8916826200048c565b8355505b6001600288020188555050505b505050505050565b61163080620005c16000396000f3fe608060405234801561001057600080fd5b50600436106100b45760003560e01c806370a082311161007157806370a08231146101a357806395d89b41146101d357806397304ced146101f1578063a457c2d71461020d578063a9059cbb1461023d578063dd62ed3e1461026d576100b4565b806306fdde03146100b9578063095ea7b3146100d757806318160ddd1461010757806323b872dd14610125578063313ce567146101555780633950935114610173575b600080fd5b6100c161029d565b6040516100ce9190610cb4565b60405180910390f35b6100f160048036038101906100ec9190610d6f565b61032f565b6040516100fe9190610dca565b60405180910390f35b61010f610352565b60405161011c9190610df4565b60405180910390f35b61013f600480360381019061013a9190610e0f565b61035c565b60405161014c9190610dca565b60405180910390f35b61015d61038b565b60405161016a9190610e7e565b60405180910390f35b61018d60048036038101906101889190610d6f565b610394565b60405161019a9190610dca565b60405180910390f35b6101bd60048036038101906101b89190610e99565b6103cb565b6040516101ca9190610df4565b60405180910390f35b6101db610413565b6040516101e89190610cb4565b60405180910390f35b61020b60048036038101906102069190610ec6565b6104a5565b005b61022760048036038101906102229190610d6f565b6104d0565b6040516102349190610dca565b60405180910390f35b61025760048036038101906102529190610d6f565b610547565b6040516102649190610dca565b60405180910390f35b61028760048036038101906102829190610ef3565b61056a565b6040516102949190610df4565b60405180910390f35b6060600380546102ac90610f62565b80601f01602080910402602001604051908101604052809291908181526020018280546102d890610f62565b80156103255780601f106102fa57610100808354040283529160200191610325565b820191906000526020600020905b81548152906001019060200180831161030857829003601f168201915b5050505050905090565b60008061033a6105f1565b90506103478185856105f9565b600191505092915050565b6000600254905090565b6000806103676105f1565b90506103748582856107c2565b61037f85858561084e565b60019150509392505050565b60006012905090565b60008061039f6105f1565b90506103c08185856103b1858961056a565b6103bb9190610fc2565b6105f9565b600191505092915050565b60008060008373ffffffffffffffffffffffffffffffffffffffff1673ffffffffffffffffffffffffffffffffffffffff168152602001908152602001600020549050919050565b60606004805461042290610f62565b80601f016020809104026020016040519081016040528092919081815260200182805461044e90610f62565b801561049b5780601f106104705761010080835404028352916020019161049b565b820191906000526020600020905b81548152906001019060200180831161047e57829003601f168201915b5050505050905090565b6104cd336104b161038b565b600a6104bd9190611129565b836104c89190611174565b610ac4565b50565b6000806104db6105f1565b905060006104e9828661056a565b90508381101561052e576040517f08c379a000000000000000000000000000000000000000000000000000000000815260040161052590611228565b60405180910390fd5b61053b82868684036105f9565b60019250505092915050565b6000806105526105f1565b905061055f81858561084e565b600191505092915050565b6000600160008473ffffffffffffffffffffffffffffffffffffffff1673ffffffffffffffffffffffffffffffffffffffff16815260200190815260200160002060008373ffffffffffffffffffffffffffffffffffffffff1673ffffffffffffffffffffffffffffffffffffffff16815260200190815260200160002054905092915050565b600033905090565b600073ffffffffffffffffffffffffffffffffffffffff168373ffffffffffffffffffffffffffffffffffffffff1603610668576040517f08c379a000000000000000000000000000000000000000000000000000000000815260040161065f906112ba565b60405180910390fd5b600073ffffffffffffffffffffffffffffffffffffffff168273ffffffffffffffffffffffffffffffffffffffff16036106d7576040517f08c379a00000000000000000000000000000000000000000000000000000000081526004016106ce9061134c565b60405180910390fd5b80600160008573ffffffffffffffffffffffffffffffffffffffff1673ffffffffffffffffffffffffffffffffffffffff16815260200190815260200160002060008473ffffffffffffffffffffffffffffffffffffffff1673ffffffffffffffffffffffffffffffffffffffff168152602001908152602001600020819055508173ffffffffffffffffffffffffffffffffffffffff168373ffffffffffffffffffffffffffffffffffffffff167f8c5be1e5ebec7d5bd14f71427d1e84f3dd0314c0f7b2291e5b200ac8c7c3b925836040516107b59190610df4565b60405180910390a3505050565b60006107ce848461056a565b90507fffffffffffffffffffffffffffffffffffffffffffffffffffffffffffffffff8114610848578181101561083a576040517f08c379a0000000000000000000000000000000000000000000000000000000008152600401610831906113b8565b60405180910390fd5b61084784848484036105f9565b5b50505050565b600073ffffffffffffffffffffffffffffffffffffffff168373ffffffffffffffffffffffffffffffffffffffff16036108bd576040517f08c379a00000000000000000000000000000000000000000000000000000000081526004016108b49061144a565b60405180910390fd5b600073ffffffffffffffffffffffffffffffffffffffff168273ffffffffffffffffffffffffffffffffffffffff160361092c576040517f08c379a0000000000000000000000000000000000000000000000000000000008152600401610923906114dc565b60405180910390fd5b610937838383610c1a565b60008060008573ffffffffffffffffffffffffffffffffffffffff1673ffffffffffffffffffffffffffffffffffffffff168152602001908152602001600020549050818110156109bd576040517f08c379a00000000000000000000000000000000000000000000000000000000081526004016109b49061156e565b60405180910390fd5b8181036000808673ffffffffffffffffffffffffffffffffffffffff1673ffffffffffffffffffffffffffffffffffffffff16815260200190815260200160002081905550816000808573ffffffffffffffffffffffffffffffffffffffff1673ffffffffffffffffffffffffffffffffffffffff168152602001908152602001600020600082825401925050819055508273ffffffffffffffffffffffffffffffffffffffff168473ffffffffffffffffffffffffffffffffffffffff167fddf252ad1be2c89b69c2b068fc378daa952ba7f163c4a11628f55a4df523b3ef84604051610aab9190610df4565b60405180910390a3610abe848484610c1f565b50505050565b600073ffffffffffffffffffffffffffffffffffffffff168273ffffffffffffffffffffffffffffffffffffffff1603610b33576040517f08c379a0000000000000000000000000000000000000000000000000000000008152600401610b2a906115da565b60405180910390fd5b610b3f60008383610c1a565b8060026000828254610b519190610fc2565b92505081905550806000808473ffffffffffffffffffffffffffffffffffffffff1673ffffffffffffffffffffffffffffffffffffffff168152602001908152602001600020600082825401925050819055508173ffffffffffffffffffffffffffffffffffffffff16600073ffffffffffffffffffffffffffffffffffffffff167fddf252ad1be2c89b69c2b068fc378daa952ba7f163c4a11628f55a4df523b3ef83604051610c029190610df4565b60405180910390a3610c1660008383610c1f565b5050565b505050565b505050565b600081519050919050565b600082825260208201905092915050565b60005b83811015610c5e578082015181840152602081019050610c43565b60008484015250505050565b6000601f19601f8301169050919050565b6000610c8682610c24565b610c908185610c2f565b9350610ca0818560208601610c40565b610ca981610c6a565b840191505092915050565b60006020820190508181036000830152610cce8184610c7b565b905092915050565b600080fd5b600073ffffffffffffffffffffffffffffffffffffffff82169050919050565b6000610d0682610cdb565b9050919050565b610d1681610cfb565b8114610d2157600080fd5b50565b600081359050610d3381610d0d565b92915050565b6000819050919050565b610d4c81610d39565b8114610d5757600080fd5b50565b600081359050610d6981610d43565b92915050565b60008060408385031215610d8657610d85610cd6565b5b6000610d9485828601610d24565b9250506020610da585828601610d5a565b9150509250929050565b60008115159050919050565b610dc481610daf565b82525050565b6000602082019050610ddf6000830184610dbb565b92915050565b610dee81610d39565b82525050565b6000602082019050610e096000830184610de5565b92915050565b600080600060608486031215610e2857610e27610cd6565b5b6000610e3686828701610d24565b9350506020610e4786828701610d24565b9250506040610e5886828701610d5a565b9150509250925092565b600060ff82169050919050565b610e7881610e62565b82525050565b6000602082019050610e936000830184610e6f565b92915050565b600060208284031215610eaf57610eae610cd6565b5b6000610ebd84828501610d24565b91505092915050565b600060208284031215610edc57610edb610cd6565b5b6000610eea84828501610d5a565b91505092915050565b60008060408385031215610f0a57610f09610cd6565b5b6000610f1885828601610d24565b9250506020610f2985828601610d24565b9150509250929050565b7f4e487b7100000000000000000000000000000000000000000000000000000000600052602260045260246000fd5b60006002820490506001821680610f7a57607f821691505b602082108103610f8d57610f8c610f33565b5b50919050565b7f4e487b7100000000000000000000000000000000000000000000000000000000600052601160045260246000fd5b6000610fcd82610d39565b9150610fd883610d39565b9250828201905080821115610ff057610fef610f93565b5b92915050565b60008160011c9050919050565b6000808291508390505b600185111561104d5780860481111561102957611028610f93565b5b60018516156110385780820291505b808102905061104685610ff6565b945061100d565b94509492505050565b6000826110665760019050611122565b816110745760009050611122565b816001811461108a5760028114611094576110c3565b6001915050611122565b60ff8411156110a6576110a5610f93565b5b8360020a9150848211156110bd576110bc610f93565b5b50611122565b5060208310610133831016604e8410600b84101617156110f85782820a9050838111156110f3576110f2610f93565b5b611122565b6111058484846001611003565b9250905081840481111561111c5761111b610f93565b5b81810290505b9392505050565b600061113482610d39565b915061113f83610e62565b925061116c7fffffffffffffffffffffffffffffffffffffffffffffffffffffffffffffffff8484611056565b905092915050565b600061117f82610d39565b915061118a83610d39565b925082820261119881610d39565b915082820484148315176111af576111ae610f93565b5b5092915050565b7f45524332303a2064656372656173656420616c6c6f77616e63652062656c6f7760008201527f207a65726f000000000000000000000000000000000000000000000000000000602082015250565b6000611212602583610c2f565b915061121d826111b6565b604082019050919050565b6000602082019050818103600083015261124181611205565b9050919050565b7f45524332303a20617070726f76652066726f6d20746865207a65726f2061646460008201527f7265737300000000000000000000000000000000000000000000000000000000602082015250565b60006112a4602483610c2f565b91506112af82611248565b604082019050919050565b600060208201905081810360008301526112d381611297565b9050919050565b7f45524332303a20617070726f766520746f20746865207a65726f20616464726560008201527f7373000000000000000000000000000000000000000000000000000000000000602082015250565b6000611336602283610c2f565b9150611341826112da565b604082019050919050565b6000602082019050818103600083015261136581611329565b9050919050565b7f45524332303a20696e73756666696369656e7420616c6c6f77616e6365000000600082015250565b60006113a2601d83610c2f565b91506113ad8261136c565b602082019050919050565b600060208201905081810360008301526113d181611395565b9050919050565b7f45524332303a207472616e736665722066726f6d20746865207a65726f20616460008201527f6472657373000000000000000000000000000000000000000000000000000000602082015250565b6000611434602583610c2f565b915061143f826113d8565b604082019050919050565b6000602082019050818103600083015261146381611427565b9050919050565b7f45524332303a207472616e7366657220746f20746865207a65726f206164647260008201527f6573730000000000000000000000000000000000000000000000000000000000602082015250565b60006114c6602383610c2f565b91506114d18261146a565b604082019050919050565b600060208201905081810360008301526114f5816114b9565b9050919050565b7f45524332303a207472616e7366657220616d6f756e742065786365656473206260008201527f616c616e63650000000000000000000000000000000000000000000000000000602082015250565b6000611558602683610c2f565b9150611563826114fc565b604082019050919050565b600060208201905081810360008301526115878161154b565b9050919050565b7f45524332303a206d696e7420746f20746865207a65726f206164647265737300600082015250565b60006115c4601f83610c2f565b91506115cf8261158e565b602082019050919050565b600060208201905081810360008301526115f3816115b7565b905091905056fea2646970667358221220219a2bbe976d93063b7dceccfa561fe8206889798b01c33c870b38504073800e64736f6c63430008180033",
  "linkReferences": {},
  "deployedLinkReferences": {}
}